:100000000C946D000C94EE1C0C94151D0C94950032
:100010000C9495000C9495000C9495000C945C0144
:100020000C9495000C9495000C9495000C949500FC
:100030000C9495000C9495000C9469070C94950011
:100040000C943C1D0C9495000C9429200C945B207E
:100050000C9495000C9495000C9495000C949500CC
:100060000C94CA000C9495007C3C3E5E2B3D3F2FC7
:100070005B5D3B2C2A225C000000000800020100AE
:100080000003040700000000000000000102040853
:1000900010204080010204081020010204081020F2
:1000A000040404040404040402020202020203031E
:1000B00003030303000000002300260029000000C2
:1000C0000000250028002B0000000000240027006D
:1000D0002A003A05C60DF1108B2011241FBECFEF68
:1000E000D8E0DEBFCDBF11E0A0E0B1E0ECEBF5E47D
:1000F00002C005900D92A63FB107D9F725E0A6EF03
:10010000B1E001C01D92AF35B207E1F710E0CAEDD2
:10011000D0E004C02297FE010E947021C23DD107A9
:10012000C9F70E9425210C94DC220C940000F8945D
:1001300080914D0290E0982F882720914E02822BCB
:1001400010924E0210924D02789408951092FF0181
:1001500082E18093B80081E08093B90085E48093C8
:10016000BA008FEF8093BB0085EC8093BC001092A7
:1001700001027894089591E09093FF018093FE012D
:100180007093FD016093FC0185EA8093BC0010929E
:10019000010208951F920F920FB60F9211248F93B0
:1001A0009F938091B9008C7F809300028091B90069
:1001B0008C7F803309F469C090F4883111F148F4E0
:1001C000882309F45FC0883009F05DC08091FE018A
:1001D00053C0803209F459C08832C1F054C080380D
:1001E000F9F048F4883309F450C0803609F04BC068
:1001F0001092010248C0883A41F1883B09F43FC09F
:1002000042C0109201028091FD0136C0809101022E
:100210008F5F809301028230C1F18091FC012CC07C
:1002200080910102811105C09091BB0090934F0213
:1002300008C090914F0290934E029091BB00909312
:100240004D028F5F809301021EC0109201028091C7
:100250004F02813041F49091450280914C029923E4
:1002600059F0886009C0803119F480914A0204C0B5
:10027000813129F480914B028093BB0004C010921D
:10028000BB0001C0FFCF80E001C081E09091FF0181
:10029000911102C085EC07C0882321F01092FF0164
:1002A00085ED01C085E88093BC009F918F910F90F0
:1002B0000FBE0F901F9018951F920F920FB60F92BE
:1002C00011242F933F934F935F936F937F938F935B
:1002D0009F93AF93BF93EF93FF938091FB018F5F49
:1002E0008093FB018D3769F51092FB018091F90134
:1002F0009091FA01019731F41092F80182E092E0B6
:100300000E9405088091F9019091FA01009729F067
:1003100001979093FA018093F9018091F6019091F1
:10032000F70101969093F7018093F6010A9749F43B
:100330001092F7011092F60166E073E182E30E94E9
:10034000BB00FF91EF91BF91AF919F918F917F91F2
:100350006F915F914F913F912F910F900FBE0F9032
:100360001F9018950E94A60082E08093B00087E05D
:100370008093B10083E88093B30080917000826025
:100380008093700061E084E00E944C1E61E084E094
:100390000E94851E61E08AE00E944C1E61E08AE0B6
:1003A0000E94851E84B58F7084BD61E085E00E9447
:1003B0004C1E60E085E00E94851E60E082E00E94A5
:1003C0004C1E26E040E855E260E070E08EEB94E0E1
:1003D0000E94C71F6EE071E08EEB94E00E940C213A
:1003E00082E092E00E943E09811104C080914C029B
:1003F0008E7F09C06AE171E08EEB94E00E941221C9
:1004000080914C02816080934C0264E080E692E02F
:100410000E94140C811108C044EF51E064E482E0B2
:1004200092E00E944609F1CF64E271E08EEB94E025
:100430000E94122180914C02826080934C022FE036
:1004400088E190E00FB6F894A895809360000FBE05
:100450002093600040E060E082E092E00E94A20809
:1004600065E082E092E00E94C605811104C080919F
:100470004C028B7F09C06FE271E08EEB94E00E942A
:10048000122180914C02846080934C020895FB01FC
:100490006AE00E943521805D8083905D91838EE2C9
:1004A00082838DE6838380E7848383E3858316825A
:1004B0000895FB018A3020F4805D808311820895C5
:1004C0006AE00E943521805D8083905D9183128275
:1004D0000895CF93DF93EC0180914502882339F092
:1004E000BE0182E092E0DF91CF910C94170664E0A8
:1004F00080E692E00E94140CBE0180E692E0DF915B
:10050000CF910C94BB0DCF93DF93CDB7DEB7A697F9
:100510000FB6F894DEBF0FBECDBF83B7817F83BF18
:10052000B12CC12CD12CF12CEE24E3940E94970025
:100530008C0183B7816083BF889583B78E7F83BF2B
:10054000980133272930310509F492C1E0F42530B0
:10055000310509F41DC150F42330310509F496C06A
:1005600008F0D5C02230310591F172C22730310533
:1005700009F46DC108F07AC1412F612F82E092E049
:100580000E94A20865C22D30310509F499C180F49A
:100590002B30310509F48CC108F08EC1312F3F7129
:1005A000F32E012F1127029506950770D02E50C209
:1005B0002131310509F43DC22A3A310509F43CC222
:1005C0002031310509F044C210934A0241C2198218
:1005D0001A8E63E471E0CE0101960E94B72217FFE4
:1005E00003C0E092F80102C01092F801BE01665EFD
:1005F0007F4F812F8F770E944702BE01665E7F4F3B
:10060000CE0101960E94B722A895809145028823C9
:1006100061F082E092E00E940508A89562E370E034
:1006200080E090E00E94B51DA895A89564E080E662
:1006300092E00E94140CBE016F5F7F4F82E092E057
:100640000E94170881110EC019826BE471E0CE017F
:1006500001960E94B722BE016F5F7F4F82E092E059
:100660000E94170820914B0280914A02211103C079
:10067000882309F4EDC190E03CE3239F800D911D98
:1006800011249093FA018093F901E2C119821A8E24
:100690006EE571E0CE0101960E94B72217FF03C0FC
:1006A000E092F80102C01092F801BE01665E7F4F31
:1006B000812F8F770E944702BE01665E7F4FCE0179
:1006C00001960E94B722A89580914502882361F087
:1006D00082E092E00E940508A89562E370E080E065
:1006E00090E00E94B51DA895A89564E080E692E090
:1006F0000E94140CBE016F5F7F4F82E092E00E9467
:100700001708811190C0198266E671E081C01982D4
:100710001A8E69E771E0CE0101960E94B72217FF99
:1007200003C0E092F80102C01092F801BE01665EBB
:100730007F4F812F8F770E944702BE01665E7F4FF9
:10074000CE0101960E94B722A89580914502882388
:1007500061F082E092E00E940508A89562E370E0F3
:1007600080E090E00E94B51DA895A89564E080E621
:1007700092E00E94140CBE016F5F7F4F82E092E016
:100780000E94170881114FC0198261E871E040C0D2
:1007900019821A8E64E971E0CE0101960E94B72297
:1007A00017FF03C0E092F80102C01092F801BE01E9
:1007B000665E7F4F812F8F770E944702BE01665E83
:1007C0007F4FCE0101960E94B722A89580914502E5
:1007D000882361F082E092E00E940508A89562E318
:1007E00070E080E090E00E94B51DA895A89564E0B7
:1007F00080E692E00E94140CBE016F5F7F4F82E0A2
:1008000092E00E94170881110EC019826AE971E016
:10081000CE0101960E94B722BE016F5F7F4F82E03A
:1008200092E00E94170880914B0220914A028111A8
:1008300003C0222309F40CC130E09CE3899F200D02
:10084000311D11243093FA012093F90101C1109256
:10085000F80182E092E00E940508A89562E370E04A
:1008600080E090E00E94B51DA895F2C0F12EF0C086
:1008700019821A8E6BEA71E0CE0101960E94B722AE
:10088000BE01665E7F4F8F2D0E945902BE01665EDB
:100890007F4FCE0101960E94B72262EB71E0CE013C
:1008A00001960E94B722BE01665E7F4F812F95C0E0
:1008B000812F8F71C82ECCC0912F9F70B92EC8C0C8
:1008C00019821A8E64EB71E0CE0101960E94B72264
:1008D000BE01665E7F4F8F2D0E945902BE01665E8B
:1008E0007F4FCE0101960E94B72262EB71E0CE01EC
:1008F00001960E94B722BE01665E7F4F812F0E9443
:100900005902BE01665E7F4FCE0101960E94B7225A
:1009100062EB71E0CE0101960E94B722BE01665ED5
:100920007F4F8C2D0E945902BE01665E7F4FCE0123
:1009300001960E94B72262EB71E0CE0101960E94FF
:10094000B722BE01665E7F4F8B2D0E945902BE0109
:10095000665E7F4FCE0101960E94B72266EA71E083
:10096000CE0101960E94B722A895CE0101960E9461
:100970006902811148C019821A8E64EB71E0CE01C0
:1009800001960E94B722BE01665E7F4F8F2D0E94A6
:100990005902BE01665E7F4FCE0101960E94B722CA
:1009A00062EB71E0CE0101960E94B722BE01665E45
:1009B0007F4F812F0E945902BE01665E7F4FCE019C
:1009C00001960E94B72262EB71E0CE0101960E946F
:1009D000B722BE01665E7F4F8D2D0E945902BE0177
:1009E000665E7F4FCE0101960E94B72266EA71E0F3
:1009F000CE0101960E94B722A895CE0101960E94D1
:100A00006902882329F11092F80182E092E00E94A5
:100A10000508A89562E370E080E090E00E94B51DB3
:100A2000A895BE016F5F7F4F82E092E00E94170899
:100A30000FC010934B020CC02EE088E190E00FB67F
:100A4000F894A895809360000FBE20936000FFCFBC
:100A5000A8958091F801882309F468CD809145021A
:100A6000811164CDBE016F5F7F4F82E092E00E94F2
:100A700017085CCDEF920F9344E0E42E03E028E0EA
:100A80004AE069E082E092E00E94F5050F91EF9064
:100A90000895CF93CFB7F89480915302811127C066
:100AA000EAEAF0E08491E6E9F0E09491E82FF0E0E2
:100AB000EE0FFF1FE853FF4FA591B4918C9189234E
:100AC00021F461E08AE00E94851E61E08AE00E94D4
:100AD0004C1E8CB580618CBD8CB580648CBD61E092
:100AE0008DE00E944C1E61E08BE00E944C1E8091C4
:100AF00053028F5F80935302CFBFCF9108952FB7DA
:100B0000F894882339F0813039F082E080935202E2
:100B100090E003C091E001C092E080915102892BE6
:100B20008093510280915202811103C081E0809331
:100B300052022FBF089520915202222399F03FB70D
:100B4000F89420915202213059F42DB32093500291
:100B50004DB320915102209524232DBB3FBF02C0ED
:100B6000309350028CBD9DBD089580915202882320
:100B700061F09FB7F8942091520280915002213089
:100B800019F48DBB9FBF08958FBF0895CF939093A5
:100B90005F0280935E026F3F41F48FEA87BD8091D0
:100BA0006E00826080936E001BC06530D9F4FC013A
:100BB00080A1823029F08330A9F482E090E002C065
:100BC00080E090E0FC01E454FE4FC0818C2F0E9435
:100BD0007F0541E050E061E977E08C2F0E94CE1C58
:100BE00081E001C080E0CF9108950F93CF93DF9310
:100BF000EC0119A21AA21BA281E08FA36CA34DA342
:100C00002EA308A3CE0188960E94940AFE01ED5BF4
:100C1000FF4F1082CC5BDF4F61E088810E944C1E49
:100C200061E08881DF91CF910F910C94851E0F9325
:100C30001F93CF93DF938B01FC01EA5BFF4F71831E
:100C40006083EC01CB5BDF4F21E028833397288161
:100C5000213091F420812111FACF6AE080E692E000
:100C60000E94140C1882B80180E692E0DF91CF91C7
:100C70001F910F910C94BB0D988181E0911101C0DF
:100C800080E0DF91CF911F910F910895FC0180A129
:100C90000E94BB1E21E0892B09F420E0822F0895D9
:100CA0001F93CF93DF93FC0187A1882339F01EBCEB
:100CB00000000DB407FEFDCF8EB529C0A0915A02E9
:100CC000B0915B0210915602E0915C02F0915D02DE
:100CD000D0915702CD2FC09527E030E080E041E071
:100CE00050E09C91912339F0BA01022E01C0660FA9
:100CF0000A94EAF7862B90819D2B908390819C2308
:100D000090832150310968F790819C239083DF9173
:100D1000CF911F910895CF93DF93FC0187A1882382
:100D200039F06EBD00000DB407FEFDCF8EB52DC0AD
:100D3000E0915C02F0915D0250915702452F409581
:100D4000A0915802B0915902C0915502DC2FD09564
:100D500087E090E070E02081242320839B01082E0F
:100D600002C0359527950A94E2F720FF03C02C9125
:100D70002C2B02C02C912D232C932081252B2083FA
:100D8000019748F7808184238083DF91CF91089574
:100D9000CF92DF92EF92FF920F931F93CF93DF9347
:100DA000EC01F62ED72EE42E8FA1882321F080E5CA
:100DB00091E00E949B0560E08EA10E94851ECF2CD1
:100DC0000F2D1D2D802F8C198E1538F4F80161918F
:100DD0008F01CE010E948B06F5CF61E08EA10E94AB
:100DE000851E8FA1882351F0DF91CF911F910F9124
:100DF000FF90EF90DF90CF900C94B505DF91CF91ED
:100E00001F910F91FF90EF90DF90CF900895EF9298
:100E1000FF920F931F93CF93DF93EC018FB7F8945A
:100E200090915402992311F08FBF4CC091E09093A0
:100E300054028FBF7E0183E4E80EF11CF70180812C
:100E40008823F1F18E01085D1F4FC8010E94120B2B
:100E50008823B1F1CE010E944606882389F1CE0194
:100E60000E9446068823A9F040E250E0BE01C80176
:100E70000E94A70A1816190634F0F7011082C8015B
:100E80000E94000B1DC0482FBE01CE010E94C80663
:100E9000E6CF8E010B5B1F4FF8018081813081F41A
:100EA000CA5BDF4F6881798180E692E00E94BB0DCA
:100EB000882321F08FEFF801808302C0F8011082AF
:100EC00010925402DF91CF911F910F91FF90EF90FC
:100ED00008951F920F920FB60F9211242F933F93F4
:100EE0004F935F936F937F938F939F93AF93BF9332
:100EF000EF93FF9380915E0290915F020E9407073B
:100F0000FF91EF91BF91AF919F918F917F916F91E1
:100F10005F914F913F912F910F900FBE0F901F90B7
:100F2000189580915E0290915F020C9407070F93D1
:100F30001F93CF93DF93EC01162F8FA1882321F00D
:100F400082E590E00E949B0560E08DA10E94851ED5
:100F500063E0CE010E948B06612FCE010E948B06BA
:100F60008AE090E00E94DD1DCE010E945006082F0D
:100F700010E0102F0027CE010E945006082B61E0E0
:100F80008DA10E94851E8FA181110E94B505C80107
:100F9000DF91CF911F910F910895FF920F931F93AF
:100FA000CF93DF93EC01162F042FF52E8FA188230A
:100FB00021F082E590E00E949B0560E08DA10E94F7
:100FC000851E62E0CE010E948B06612FCE010E9439
:100FD0008B066F2DCE010E948B06602FCE010E94E2
:100FE0008B0661E08DA10E94851E8FA1882339F0B8
:100FF000DF91CF911F910F91FF900C94B505DF9178
:10100000CF911F910F91FF900895CF93DF93EC0143
:1010100048E058E460E00E94CD07FE01ED5BFF4F21
:101020001082CE018896DF91CF910C94000BEF9245
:10103000FF920F931F93CF93DF93CDB7DEB76B97DC
:101040000FB6F894DEBF0FBECDBF8C017B0140E030
:1010500058E460E00E94CD0749E25EE167E0C80124
:101060000E94CD0740E050E066E0C8010E94CD0735
:1010700021E0A70160E672E0CE0101960E942D0DED
:101080008B819C81F80193A782A78D819E81AF817E
:10109000B88584A795A7A6A7B7A749855A856B8564
:1010A0007C8540AB51AB62AB73AB8DE0FE013D96EE
:1010B000D801D49601900D928A95E1F7F801EF5B83
:1010C000FF4F8A8D9B8D91838083C80188960E94F3
:1010D000120B882311F140E050E064E0C8010E9447
:1010E000CD0740E050E064E0C8010E94CD077801E0
:1010F000F3E4EF0EF11C81E0F7018083C8010E9448
:1011000046068823D9F3F7018081882341F0C8017E
:101110000E944606811105C002C080E006C081E041
:1011200004C0C8010E940707EECF6B960FB6F89473
:10113000DEBF0FBECDBFDF91CF911F910F91FF900A
:10114000EF90089570E0762F6627F894642BAB013A
:101150006BE00E94CD077894089544E058E060E089
:101160000E94CD0764E670E080E090E00C94B51D2D
:10117000CF93DF93EC018CA187FD0DC060E00E944E
:10118000851E64E670E080E090E00E94B51D61E09D
:101190008CA10E94851E61E08DA10E94851E61E0E8
:1011A0008EA10E94851E64E670E080E090E00E94BF
:1011B000B51DCE010E94AD0864E670E080E090E0CD
:1011C0000E94B51D40E050E663E0CE010E94CD07CD
:1011D00048E268E2CE01DF91CF910C94A208CF9350
:1011E000DF93EC018CA187FD07C061E00E944C1EDB
:1011F00060E08CA10E94851E61E08DA10E944C1EC2
:1012000061E08DA10E94851E61E08EA10E944C1EAE
:1012100061E08EA10E94851E60E088A10E944C1EA4
:101220008FA181110DC061E089A10E944C1E61E077
:101230008BA10E944C1E60E08AA10E944C1E0EC031
:101240000E9449058CB5837F8CBD8CB58F7D8CBD8C
:101250008CB583608CBD8DB58E7F8DBDCE010E9417
:10126000B80861E0CE010E94970734E09695879513
:101270003A95E1F78F70DF91CF9108950E94EF08C2
:1012800091E0843009F090E0892F0895FF920F9348
:101290001F93CF93DF93EC01F62E8A010E94B808CA
:1012A00060E0CE010E949707AC01406260E0CE0191
:1012B0000E94CD0788A10E94BB1E892BD9F38FA164
:1012C000882321F080E591E00E949B0560E08EA1DB
:1012D0000E94851E63E5CE010E948B066FEECE0153
:1012E0000E948B066EE6CE010E948B066F2DCE010A
:1012F0000E948B0660E0CE010E948B0660E0CE016A
:101300000E948B0660E0CE010E948B0660E0CE0159
:101310000E948B0661E08EA10E94851E8FA1811123
:101320000E94B505B80180E090E00E94B51D8FA134
:10133000882321F080E591E00E949B0560E08EA16A
:101340000E94851E65E4CE010E948B0668E7CE01EF
:101350000E948B0669E6CE010E948B0664E7CE01EF
:101360000E948B0660E0CE010E948B0660E0CE01F9
:101370000E948B0660E0CE010E948B0660E0CE01E9
:101380000E948B0661E08EA10E94851E8FA188239A
:1013900039F0DF91CF911F910F91FF900C94B5051B
:1013A000DF91CF911F910F91FF900895CF93DF931D
:1013B0001F92CDB7DEB76983DC01ED91FC9102800D
:1013C000F381E02D41E050E0BE016F5F7F4F099552
:1013D0000F90DF91CF910895CF93DF93EC01898D2A
:1013E0009A8D009759F0FC01138212820E947216A6
:1013F000E98DFA8D22813381232B31F081E090E059
:101400009B838A8380E090E0DF91CF910895FC0177
:10141000818D928D009711F00C9412140895CF9342
:10142000DF931F92CDB7DEB741E050E0BE016F5FA2
:101430007F4F0E942312019719F4898190E002C026
:101440008FEF9FEF0F90DF91CF910895FC01818D79
:10145000928D009711F00C940F0A8FEF9FEF089573
:101460000F931F93CF93DF938C01FC01818D928D9D
:101470000097B9F00E940F0AEC018F3FFFEF9F0722
:1014800099F0F801818D928DFC0142855385648528
:10149000758541505109610971090E947613CE0189
:1014A00005C080E090E002C08FEF9FEFDF91CF9109
:1014B0001F910F910895CF92DF92EF92FF920F93B9
:1014C0001F93CF93DF93EC017B016A011B821A8289
:1014D00008EE13E020E030E00C831D832E833F8371
:1014E00083EC91E0998388838DE190E00E948321D1
:1014F0009A8F898F009779F02DE1F701DC01019037
:101500000D922A95E1F74CE050E0B601CE010C9621
:101510000E94CD22188EDF91CF911F910F91FF90E5
:10152000EF90DF90CF900895FC011382128248EE75
:1015300053E060E070E0448355836683778383ECF7
:1015400091E091838083128E118E14860895FC01A0
:10155000818D928D009711F00C94231280E090E021
:101560000895DC015996ED91FC915A97309729F036
:10157000628573858485958508956FEF7FEFCB0134
:101580000895DC015996ED91FC915A97309729F016
:101590006389748985899689089560E070E0CB013C
:1015A0000895CF92DF92EF92FF92CF93DF93EC01F9
:1015B000898D9A8D892BD9F0CE010E94C10A6B01C9
:1015C0007C01CE010E94B10AA7019601261B370BB0
:1015D000480B590BDA01C901811530E89307A105C1
:1015E000B10538F08FEF9FE7A0E0B0E002C080E0E7
:1015F00090E0DF91CF91FF90EF90DF90CF90089532
:10160000CF93DF93EC01898D9A8D009741F00E9472
:101610005914898D9A8D0E941B221A8E198EDF9182
:10162000CF910895DC015996ED91FC915A9730972E
:1016300021F081E09581911101C080E008951F9310
:10164000CF93DF93CDB7DEB76D970FB6F894DEBFBB
:101650000FBECDBFAB011C821B8223ED31E03A836C
:1016600029831E8221E0BC01CE0101960E948D15C6
:1016700011E0811102C010E004C0CE0101960E9469
:101680005914812F6D960FB6F894DEBF0FBECDBFF3
:10169000DF91CF911F910895CF93DF93FB012081BC
:1016A0003181FC01E20FF31FE081EF3211F42F5F73
:1016B0003F4FDA01E0E0F0E0EC01C20FD31FC88138
:1016C000CF3249F0CC2339F031962F5F3F4FCD9385
:1016D000EC30F10589F7E40FF51F1082FC01E20FF1
:1016E000F31F40814F3211F42F5F3F4FFB013183D5
:1016F0002083FC01E20FF31F81E09081911101C072
:1017000080E0DF91CF9108954F925F926F927F9228
:101710008F929F92AF92BF92CF92DF92EF92FF9201
:101720000F931F93CF93DF93CDB7DEB7C954D10981
:101730000FB6F894DEBF0FBECDBF5C016B013A015E
:10174000490119A218A283ED91E09F8F8E8F1BA2F1
:101750001C821B829A8389831E822A961FAE1EAE2C
:101760002A978B017E018EE1E80EF11C44244394FC
:10177000AE01455C5F4FBE01685B7F4FC5010E94B3
:101780004C0B582E482F44259401BE01655C7F4FB9
:10179000C801F3010995811108C00C151D0519F048
:1017A000C8010E94591480E027C05520B9F021E0FB
:1017B000AE01455C5F4FB801C7010E948D15582EE0
:1017C0000C151D0599F0C8010E945914552059F3B4
:1017D000902F812F8701E92EF82ECACF0C151D05F9
:1017E00019F0C8010E94591481E006C08823D9F27B
:1017F0008E010F5F1F4FECCFC75BDF4F0FB6F89422
:10180000DEBF0FBECDBFDF91CF911F910F91FF9033
:10181000EF90DF90CF90BF90AF909F908F907F9090
:101820006F905F904F9008950F931F93CF93DF9326
:10183000EC01462F61E00E94E90E811102C080E0B8
:101840001DC08E01045F1F4F41E0BE01C8010E9410
:10185000B91B882359F0B801CE018A960E94D31192
:1018600091E0811101C090E0892F08C040E0BE01E5
:10187000C8010E94B91B882311F3EDCFDF91CF91EE
:101880001F910F910895FC01DB0112968D919C919F
:1018900013979383828383ED91E0918380831496E1
:1018A0008C911497848315968C9115978583169641
:1018B0004D915D916D917C91199746835783608717
:1018C00071871A964D915D916D917C911D9742871C
:1018D0005387648775871E964D915D916D917C91BC
:1018E000519746875787608B718B52968C91529790
:1018F000828B53964D915D916D917C915697438B60
:10190000548B658B768B57964D915D916D917C9143
:101910005A97478B508F618F728F5B968D919C91F8
:101920005C97948F838F08954F925F926F927F920E
:101930008F929F92AF92BF92CF92DF92EF92FF92DF
:101940000F931F93CF93DF93CDB7DEB7C754D10961
:101950000FB6F894DEBF0FBECDBF6C014A0139014E
:10196000665D7F4F5E018EE1A80EB11CC5010E942D
:10197000430C1C821B8283ED91E09A8389831E8233
:101980008401FE0131967F015A2C4B2C6FE270E0EE
:10199000C8010E94C2220097E9F1F80120812F328C
:1019A00019F40F5F1F4FF2CF801B8D3008F08CE0D1
:1019B000A82EB12CA501B801CE01CB960E94CD2254
:1019C000EBE3F0E0EC0FFD1FEA0DFB1D1082C701F9
:1019D0000E94591421E0AE01455C5F4F652D742DC6
:1019E000C7010E948D15811109C0F6011382128270
:1019F00083ED91E091838083158216C00A0D1B1D33
:101A0000852D942D0E945914C2015E2C4F2CE92E75
:101A1000F82EBCCF08191909F30111830083652D35
:101A2000742DC6010E94430CC601C95BDF4F0FB67F
:101A3000F894DEBF0FBECDBFDF91CF911F910F9104
:101A4000FF90EF90DF90CF90BF90AF909F908F90DE
:101A50007F906F905F904F9008959F92AF92BF924A
:101A6000CF92DF92EF92FF920F931F93CF93DF936A
:101A7000CDB7DEB7C955D1090FB6F894DEBF0FBE9A
:101A8000CDBF7C016B015A01922E9E01285A3F4F17
:101A9000CE01CB960E94940C6A960EAD1FAD6A974C
:101AA0000A0D1B1DF801808181110AC0BE01655C11
:101AB0007F4FCE0101960E94430C48E951E041C09E
:101AC00019A218A283ED91E09F8F8E8F1BA2219601
:101AD0008FAD2197811104C0C7010E94940A37C0BD
:101AE0008250823060F4B601665D7F4F292DA801D7
:101AF000CE014E960E948D15811110C0EDCF292D7B
:101B0000A801BE01655C7F4FCE014E960E948D15E7
:101B1000882311F3CE01CB960E945914892D86702B
:101B200041F049A95AA96BA97CA9CE014E960E9401
:101B30007613BE01625E7F4FCE0101960E94430C78
:101B4000A801BE016F5F7F4FC7010E945B0AC701FA
:101B5000C75ADF4F0FB6F894DEBF0FBECDBFDF917F
:101B6000CF911F910F91FF90EF90DF90CF90BF909A
:101B7000AF909F900895FB01BC01665D7F4F20E010
:101B800030E04FE15BE0CF010C94840B10926502D2
:101B9000109266021092690210926B0282E090E04D
:101BA000A0E0B0E080936C0290936D02A0936E026F
:101BB000B0936F021092830210928D0210928C02E9
:101BC00083ED91E090938B0280938A0210928F02B2
:101BD00008959FB7F89420915202809150022130CD
:101BE00019F48DBB9FBF08958FBF08958EBD00006F
:101BF0000DB407FEFDCF8EB508958FEF0C94F60D52
:101C000061E0FC0184810E94851E8091A9028823E5
:101C100039F01092A9028091520281110C94E90DC1
:101C20000895CF93DF93EC018091A902811109C03F
:101C300081E08093A9028091AA029091AB020E9458
:101C40009B0560E08C81DF91CF910C94851ECF9332
:101C5000DF93EC018E81882389F08F8198859C0128
:101C60002F5F3F4F38872F838230924018F40E94B5
:101C7000FD0DF3CFCE010E94000E1E82DF91CF91A9
:101C80000895673028F026E1FC01258380E008955F
:101C9000623081F030F4662359F06130B1F480E5B0
:101CA00015C0643059F040F0653079F482E50EC01B
:101CB00080E505C081E503C081E508C082E5809329
:101CC000AA0281E08093AB02089583E58093AA0283
:101CD0001092AB0281E008950F931F93CF93DF938F
:101CE000EB010E94861D8B010E94FD0D8F3F49F084
:101CF0000E94861D601B710B6C177D07A8F380E0A6
:101D000001C081E0DF91CF911F910F910895CF9293
:101D1000DF92FF920F931F93CF93DF9300D000D0F9
:101D2000CDB7DEB76C01F62E29833A834B835C83F3
:101D30000E94270EC6010E94110E6CE271E0C601DE
:101D40000E946C0E8F2D80640E94F60D08E110E059
:101D50005C814B813A812981DA01C901002E04C0DE
:101D6000B695A795979587950A94D2F729833A83D4
:101D70004B835C830E94F60D0850110929813A813A
:101D80004B815C81083F8FEF180731F7FF2029F066
:101D9000E8E0FE1621F08FEF03C085E901C087E877
:101DA0000E94F60D10E00E94FD0DF601828787FF6C
:101DB00004C01F3F11F01F5FF6CF0F900F900F90E0
:101DC0000F90DF91CF911F910F91FF90DF90CF90F7
:101DD0000895BF92CF92DF92EF92FF920F931F93DD
:101DE000CF93DF93EC01B62E1B8619861E821D82CF
:101DF0004C830E94861D8B0161E08C810E944C1EE9
:101E000061E08C810E94851E0E94490582E58093D5
:101E1000AA021092AB028091AA029091AB020E949A
:101E20009B052AE0F22E8FEF0E94F60DFA94D9F767
:101E30008091520281110E94E90DCE010E94110E83
:101E400020E030E0A90160E0CE010E94870EF82E6C
:101E50008A8781E0F81649F00E94861D601B710B8D
:101E6000613D774068F381E04BC02AEA31E040E011
:101E700050E068E0CE010E94870E82FF02C0FB8620
:101E80000DC094E0F92E0E94FD0D8A87FA94D9F7CF
:101E90008A3A11F082E034C082E08B878B858230F1
:101EA00031F4C12CD12CE12C80E4F82E03C0C12CDC
:101EB000D12C760120E030E0A90167E3CE010E9439
:101EC000870EA701960169E2CE010E94870E8A87DC
:101ED000882349F00E94861D601B710B613D77408D
:101EE00048F388E00DC08B85823031F520E030E08A
:101EF000A9016AE3CE010E94870E882381F086E063
:101F00008D83CE010E94000E80E0DF91CF911F9162
:101F10000F91FF90EF90DF90CF90BF9008950E94B7
:101F2000FD0D807C803C11F483E08B870E94FD0DC9
:101F30000E94FD0D0E94FD0DCE010E94000E6B2D32
:101F4000CE01DF91CF911F910F91FF90EF90DF9025
:101F5000CF90BF900C94410E0F931F93CF93DF93BC
:101F6000EC010E94861D8B010E94FD0D8A878F3F28
:101F700049F40E94861D601B710B6D327140A0F305
:101F80008FE003C08E3F39F08DE08D83CE010E943B
:101F9000000E80E001C081E0DF91CF911F910F9191
:101FA0000895CF92DF92EF92FF920F931F93CF93FA
:101FB000DF93EC0169010115110509F462C0C80144
:101FC000820F931F8130924008F05DC08E8188237C
:101FD00071F088819981AA81BB81481759076A07E6
:101FE0007B0729F48F819885C816D90610F5488398
:101FF00059836A837B838B85833039F039E0440FC2
:10200000551F661F771F3A95D1F79A01AB0161E121
:10201000CE010E94870E882319F083E08D8333C0A0
:10202000CE010E94AC0F882371F118861F8281E0D7
:102030008E838F8198858C159D0540F40E94FD0D3F
:102040008F819885019698878F83F3CF6701E00E83
:10205000F11ECE14DF0431F00E94FD0DF6018193D4
:102060006F01F7CF8F819885800F911F98878F839D
:102070002985222319F08115924018F0CE010E9483
:10208000270E81E004C0CE010E94000E80E0DF91A7
:10209000CF911F910F91FF90EF90DF90CF90089517
:1020A000EF92FF920F931F93790100E012E020E07E
:1020B00030E00E94D10F1F910F91FF90EF90089593
:1020C000CF92DF92EF92FF920F931F93CF93DF9304
:1020D00000D0CDB7DEB78C01862F49835A830E948A
:1020E000F60D4981C42E5A81D52EE12CF12CF60132
:1020F00081916F010E94F60DFFEFEF1AFF0AE114C4
:1021000082E0F806A1F78FEF0E94F60D8FEF0E9494
:10211000F60D0E94FD0DF80182878F71853039F030
:1021200081E18583C8010E94000E80E001C081E04A
:102130000F900F90DF91CF911F910F91FF90EF9033
:10214000DF90CF9008950F931F93CF93DF93EC010F
:102150008901411551056105710511F482E132C013
:102160008B85833039F089E0440F551F661F771F38
:102170008A95D1F79A01AB0168E1CE010E94870EE2
:10218000882311F084E01EC0A8016EEFCE010E94EA
:1021900060108823C1F068E572E0CE010E946C0EE9
:1021A000811102C085E10EC020E030E0A9016DE0A0
:1021B000CE010E94870E811104C00E94FD0D88236C
:1021C00039F084E18D83CE010E94000E80E004C0CE
:1021D000CE010E94000E81E0DF91CF911F910F91FF
:1021E000089580E58093AA021092AB020895CF93E0
:1021F000DF93EC019C012A5F3F4F41E050E060E03B
:1022000070E08B8D9C8D0E944E1A8823A1F04F891F
:10221000588D698D7A8D452B462B472B71F44E8155
:102220005F81688579854F8B588F698F7A8F8C8114
:1022300080688C8302C080E001C081E0DF91CF9193
:102240000895CF92DF92EF92FF921F93CF93DF9387
:10225000EC010E94F710811102C080E04BC0EB8DB1
:10226000FC8DCE80DF80E884F98482E0C81AD10832
:10227000E108F108058404C0CC0CDD1CEE1CFF1C39
:102280000A94D2F74685578560897189C40ED51E98
:10229000E61EF71E148181E0C81AD108E108F10892
:1022A000112361F0C701B601610F711D811D911DE0
:1022B0000E949818882389F21150F2CFEB8DFC8D83
:1022C000C12C82E0D82EE12CF12C058404C0CC0C6A
:1022D000DD1CEE1CFF1C0A94D2F74B895C896D89CA
:1022E0007E894C0D5D1D6E1D7F1D4B8B5C8B6D8B38
:1022F0007E8B81E0DF91CF911F91FF90EF90DF9077
:10230000CF900895CF93DF93EC01462F6E857F85A4
:10231000888999890E945D18882341F08A8920E282
:10232000829FC00111248B549D4F02C080E090E039
:10233000DF91CF910895282FFB018BE030E231939C
:102340008150E9F7A22FB92F20E037E09D91992322
:1023500019F19E3219F0E8E6F0E008C03A3011F1C8
:1023600028E03AE0F3CF31964917E1F0449141116A
:10237000FACF3217B8F04FED490F4E3598F441E0DF
:10238000420FFB01E20FF11D2FE9290F2A3108F45A
:1023900090529083242FDACF81E0FB01908190321C
:1023A00009F480E008950F931F93CF93DF93EC011E
:1023B0008B018D81882311F080E040C0FB0187896B
:1023C0008031B1F482E08D831F8A188E198E1A8EA7
:1023D000408D518D60E070E095E0440F551F661F01
:1023E000771F9A95D1F74B8B5C8B6D8B7E8B15C0CD
:1023F000803211F783E08D83FB01428D538D648D14
:10240000758D4F8B588F698F7A8F9E012D5E3F4F50
:10241000C8010E944219882379F21C8F0B8F81E03A
:102420008C831E821F82188619861A861B861C863C
:102430001D861E861F86188A198A1A8ADF91CF91F7
:102440001F910F9108952F923F924F925F926F923A
:102450007F928F929F92AF92BF92CF92DF92EF9234
:10246000FF920F931F93CF93DF93EC016B015A01FF
:102470008D81811103C08FEF9FEFDAC08C8180FFC7
:10248000FACF4B895C896D897E898A859B85AC856D
:10249000BD852501612C712C8A019B01081B190B3C
:1024A0002A0B3B0B041515052605370518F45A01B0
:1024B000A81AB90A25011E0126E0220E311C41147A
:1024C000510409F47BC04A855B856C857D854A0192
:1024D00081E09822ED818A019B01F9E036952795EC
:1024E00017950795FA95D1F78B8D9C8DE23051F4B5
:1024F000FC01628D738D848D958D600F711F821F1D
:10250000931F3EC0FC0174807A9470228114910460
:10251000C9F4711017C0452B462B472B49F48F89FE
:10252000988DA98DBA8D8E839F83A887B9870AC09D
:102530004E815F816885798591010E94BE1888234C
:1025400009F499CFEB8DFC8D6E817F81888599850B
:102550006250710981099109058404C0660F771FD3
:10256000881F991F0A94D2F706851785208931891B
:10257000600F711F821F931F670D711D811D911DBB
:1025800020E032E02819390932012415350508F414
:1025900039012C8126FD04C06114F2E07F06A1F50B
:1025A0000091060110910701209108013091090165
:1025B000601771078207930719F426C0C50138C058
:1025C000760183019401AB01BC018091B30290912B
:1025D000B4020E94D10F882309F44DCFC60CD71C3A
:1025E00004C0E81BF90BCE0EDF1E8A859B85AC85E7
:1025F000BD85860D971DA11DB11D8A879B87AC8760
:10260000BD87461857085BCF40E00E945D188823BD
:1026100009F431CFC4018B549D4FD6019C01260D86
:10262000371DFC01E217F307E1F241914D93FACF18
:10263000DF91CF911F910F91FF90EF90DF90CF909E
:10264000BF90AF909F908F907F906F905F904F90D2
:102650003F902F900895FF920F931F93CF93DF9396
:102660001F92CDB7DEB78C01FC018581823018F452
:1026700080E090E034C0F80142855385648575851B
:10268000A5E07695679557954795AA95D1F7F42FCC
:10269000FF70FF2E41E050E0BE016F5F7F4FC80129
:1026A0000E942312019719F4298130E002C02FEF14
:1026B0003FEF2F3F3F4FE1F2F8014285538564859C
:1026C0007585415E5F4F6F4F7F4F428753876487A9
:1026D0007587F0E2FF9EC00111248B549D4F0F902F
:1026E000DF91CF911F910F91FF9008954F925F92CC
:1026F0006F927F92AF92BF92CF92DF92EF92FF9252
:102700000F931F93CF93DF93EC016A017B012D811F
:10271000222309F457C08B899C89AD89BE8984170F
:102720009507A607B70708F44DC04EC08A859B855C
:10273000AC85BD85EB8DFC8DE585F0E03996AC016F
:10274000BD0141505109610971090E2E04C07695F1
:102750006795579547950A94D2F7970186010150DE
:1027600011092109310904C0369527951795079558
:10277000EA95D2F70417150726073707B0F58F89B2
:10278000988DA98DBA8D8E839F83A887B9872801DC
:1027900039015E0186E0A80EB11C411451046104A8
:1027A000710461F14E815F816885798595018B8D1A
:1027B0009C8D0E94BE1891E0491A51086108710869
:1027C0008111EBCF80E01FC02230C1F0C114D104D1
:1027D000E104F10409F0AACF1E821F82188619862F
:1027E0001A861B861C861D860DC0892B8A2B8B2B77
:1027F00031F2041B150B260B370BC9CFCA86DB86BB
:10280000EC86FD8681E0DF91CF911F910F91FF90C3
:10281000EF90DF90CF90BF90AF907F906F905F90E0
:102820004F9008950F931F93CF93DF93EC018D8109
:102830008823C9F18C8187FF30C061E0CE010E94FE
:1028400082118C01009779F18D81823048F44B8997
:102850005C896D897E89F801448F558F668F778FEB
:102860004F89588D698D7A8DF801538F428F758B02
:10287000648BE091AC02F091AD02309759F0B80151
:102880006A5E7F4FC80148960995F801808D918D49
:10289000938B828B8C818F778C83DF91CF911F916B
:1028A0000F910C94221880E0DF91CF911F910F912E
:1028B0000895CF93DF93EC010E941214882319F03E
:1028C0001D8281E001C080E0DF91CF9108954F9299
:1028D0005F926F927F92AF92BF92CF92DF92EF9210
:1028E000FF920F931F93CF93DF9300D000D0CDB70B
:1028F000DEB75C016A017B01FC0185818130F1F466
:10290000848181FF1BC0F50183899489A589B689DB
:1029100084179507A607B70788F0892B8A2B8B2B7E
:1029200009F479C0F5014284538464847584B70145
:10293000A601C5010E947613811102C080E06CC01F
:10294000F501838D948DC114D104E104F10471F477
:102950004789508D618D728D0E94631B882371F3AE
:10296000F501178A108E118E128E3AC0F50146813C
:102970005781608571859E012F5F3F4F0E94BE1871
:102980008823E1F249815A816B817C81F501838D35
:10299000948DFC012789203129F408EF1FEF20E0F6
:1029A00030E004C008EF1FEF2FEF3FE04017510762
:1029B00062077307A8F40E94631B882309F4BECF43
:1029C000F50146815781608571850FEF1FEF2FEF6D
:1029D0003FE0838D948D0E94AD19882309F4AECF1A
:1029E000F501C38AD48AE58AF68A84818068848363
:1029F000C5010E941214882309F4A0CFB701A601D3
:102A00004C145D046E047F0410F4B301A201C501EF
:102A10000E94761301C081E00F900F900F900F90ED
:102A2000DF91CF911F910F91FF90EF90DF90CF90AA
:102A3000BF90AF907F906F905F904F900895FF92FE
:102A40000F931F93CF93DF93EC01F42E80E2689FE6
:102A5000F0011124EB54FD4F8385817129F0842FFF
:102A6000827411F080E053C06A8B809106019091CE
:102A70000701A0910801B09109018E879F87A88B5B
:102A8000B98B4489558960E070E0BA015527442725
:102A9000028D138D20E030E0402B512B622B732BE5
:102AA0004F8B588F698F7A8F8385887151F4048D8D
:102AB000158D268D378D0B8B1C8B2D8B3E8B81E0DE
:102AC0000CC0803179F69E012D5E3F4F8B8D9C8D21
:102AD0000E944219882331F284E08D838F2D8F70FC
:102AE0008C831E821F82188619861A861B861C8676
:102AF0001D86F6FE0BC040E050E0BA01CE01DF912A
:102B0000CF911F910F91FF900C94671481E0DF919A
:102B1000CF911F910F91FF900895AF92BF92CF92E6
:102B2000DF92EF92FF920F931F93CF93DF93CDB776
:102B3000DEB72B970FB6F894DEBF0FBECDBF7C017A
:102B40006B01CA01B22EF70125812111B9C0BE0166
:102B50006F5F7F4F0E949B11882309F4B1C0F6017B
:102B6000838D948DF701948F838FF60116821782DF
:102B7000108611861286138614861586A12CF601FE
:102B8000028513852485358583899489A589B6892D
:102B9000081719072A073B07E8F545E036952795FA
:102BA000179507954A95D1F70F70C6010E942B1310
:102BB000009709F485C0FC012081222311F0253EF5
:102BC000B9F4A1100EC0F701028B4091060150919B
:102BD0000701609108017091090146875787608B52
:102BE000718BFC018081AA24A3948111C8CF12C0EB
:102BF0004BE050E0BC01CE0101960E94AA22892B35
:102C000009F0BDCF8B2D8073803309F459C04B2D53
:102C1000602F52C08B2D8271823109F051C0AA20E1
:102C200041F061E0C7010E9482118C01009779F4A4
:102C300047C0F6018581823009F442C0C6010E9476
:102C400021118823E9F1F701128A05EB12E080E2F5
:102C5000F80111928A95E9F78BE0FE013196D801CF
:102C600001900D928A95E1F7E091AC02F091AD02EE
:102C7000309739F0B801625F7F4FC80140960995DF
:102C800009C081E298E2F801918B808B80E098E0A6
:102C900097878687F80180899189938B828B918FA2
:102CA000808F86859785978B868B0E942218882334
:102CB00039F04B2DF7016289C7010E941F1501C031
:102CC00080E02B960FB6F894DEBF0FBECDBFDF912C
:102CD000CF911F910F91FF90EF90DF90CF90BF9019
:102CE000AF9008952F923F924F925F926F927F9292
:102CF0008F929F92AF92BF92CF92DF92EF92FF920C
:102D00000F931F93CF93DF9300D000D01F92CDB7C6
:102D1000DEB78C017B013A01DC0115968C91159789
:102D20008130C9F414968C9181FF15C082FF1BC0BD
:102D3000F801438954896589768982859385A485BC
:102D4000B58584179507A607B70769F0C8010E94E3
:102D50007613811108C081E090E0F80193838283AB
:102D600080E090E046C1630180C0D8015B968D9100
:102D70009C915C97FC01F481F150B501A40129E01C
:102D800076956795579547952A95D1F7F423FD8356
:102D900021E09222FF2309F474C080E092E08819B8
:102DA000990956018C159D0508F45C01D8015B96C4
:102DB000ED91FC915C9716962D903D904D905C9016
:102DC0001997B2E02B1A310841085108058404C054
:102DD000220C331C441C551C0A94D2F78685978517
:102DE000A089B189280E391E4A1E5B1EED812E0E68
:102DF000311C411C511CA114F2E0BF0609F088C02F
:102E00008091060190910701A0910801B0910901FC
:102E100082159305A405B50559F48FEF9FEFDC01EA
:102E20008093060190930701A0930801B0930901D4
:102E30009701B201A1018091B3029091B4020E9466
:102E4000A310882309F487CF9EEFF91ACA18DB086C
:102E5000F80182859385A485B5858A0D9B1DA11DEA
:102E6000B11D82879387A487B587D8011A968D9064
:102E70009D90AD90BC901D97C114D10409F075CF01
:102E80008AC08114910409F088CF16964D915D9106
:102E90006D917C911997411551056105710559F4A2
:102EA00057968D919D910D90BC91A02D0097A105F5
:102EB000B10541F521C09E012F5F3F4F0E94BE1812
:102EC000882309F44ECF89819A81AB81BC81F801B6
:102ED000238D348DF9012789203129F448EF5FEFE4
:102EE00060E070E004C048EF5FEF6FEF7FE08417B1
:102EF0009507A607B70730F0C8010E94F7108111A7
:102F00004CCF29CFF80186839783A087B18745CF1F
:102F10008114910429F5D8011A964D915D916D9116
:102F20007C911D9753968D919D910D90BC91A02DF4
:102F3000481759076A077B0798F00E9422188823D0
:102F400009F409CF2092060130920701409208014E
:102F5000509209018091B20281608093B20208C050
:102F600041E0C201B1010E945D18882309F4F3CE4B
:102F7000C4018B549D4FD7019C012A0D3B1DFC01C0
:102F8000E217F30719F04D914193FACFE81BF90BC3
:102F9000EE0EFF1E5BCF53968D919D910D90BC91CF
:102FA000A02DF801248188159905AA05BB0538F4E0
:102FB000838A948AA58AB68A206824830CC080916B
:102FC000AC029091AD02892B31F06114710419F0BB
:102FD0002068F8012483D80114968C9183FD02C0E7
:102FE000C30107C0C8010E941214882309F4B3CE9C
:102FF000F7CF0F900F900F900F900F90DF91CF9120
:103000001F910F91FF90EF90DF90CF90BF90AF9006
:103010009F908F907F906F905F904F903F902F90F8
:103020000895CF93DF931F92CDB7DEB7698341E058
:1030300050E0BE016F5F7F4F0E9472160F90DF91CC
:10304000CF9108958091B202882399F140910601B1
:1030500050910701609108017091090125EB32E060
:103060008091B3029091B4020E94A310882319F1B9
:103070004091AE025091AF026091B0027091B102E6
:10308000411551056105710591F025EB32E0809104
:10309000B3029091B4020E94A310882361F01092B1
:1030A000AE021092AF021092B0021092B1021092D2
:1030B000B20281E0089580E00895CF92DF92EF920E
:1030C000FF92CF936B017C01C42F809106019091F8
:1030D0000701A0910801B09109018C159D05AE056D
:1030E000BF05D1F00E942218811102C080E01AC0F1
:1030F00025EB32E0B701A6018091B3029091B402B2
:103100000E945010882391F3C0920601D0920701CB
:10311000E0920801F09209018091B2028C2B809319
:10312000B20281E0CF91FF90EF90DF90CF900895B1
:10313000CF92DF92EF92FF926B017C010E942218E6
:103140008823B1F0E5EBF2E0119284E0E53BF8076B
:10315000D9F7C0920601D0920701E0920801F092DF
:1031600009018091B20281608093B20281E001C0C6
:1031700080E0FF90EF90DF90CF9008958F929F9224
:10318000AF92BF92CF92DF92EF92FF920F931F9375
:10319000CF93DF938C016A017B01E901FC018185FA
:1031A0009285A385B4850196A11DB11D841795074D
:1031B000A607B70710F480E058C0F8014389548986
:1031C000658976898789803129F4BB27AF2D9E2DAB
:1031D0008D2D09C0D701C60127E0B695A795979513
:1031E00087952A95D1F74C015D01840E951EA61E88
:1031F000B71EC501B4018090060190900701A09010
:103200000801B0900901681579058A059B0589F4C4
:10321000F8018789803199F4DD24EE24FF24F6013A
:10322000EE0FFF1FEB54FD4F80819181A0E0B0E0D5
:1032300017C040E00E945D188111EACFBCCFE8942E
:10324000C7F8DD24EE24FF24F601EE0FFF1FEE0F7A
:10325000FF1FEB54FD4F80819181A281B381BF702C
:1032600088839983AA83BB8381E0DF91CF911F91EB
:103270000F91FF90EF90DF90CF90BF90AF909F9015
:103280008F9008954F925F926F927F92AF92BF920C
:10329000CF92DF92EF92FF920F931F93CF93DF9322
:1032A00000D000D0CDB7DEB78C0149835A836B8341
:1032B0007C835901C12CD12C7601412C42E0542E43
:1032C000612C712C49815A816B817C819E012F5F19
:1032D0003F4FC8010E94BE18882359F1D301C20193
:1032E000F801058404C0880F991FAA1FBB1F0A9408
:1032F000D2F7C80ED91EEA1EFB1E49815A816B8186
:103300007C818789803129F488EF9FEFA0E0B0E0CD
:1033100004C088EF9FEFAFEFBFE0481759076A0777
:103320007B0780F2F501C082D182E282F38281E0E4
:1033300001C080E00F900F900F900F90DF91CF9120
:103340001F910F91FF90EF90DF90CF90BF90AF90C3
:103350007F906F905F904F9008954F925F926F9221
:103360007F928F929F92AF92BF92CF92DF92EF9215
:10337000FF920F931F93CF93DF93EC016A017B01C0
:1033800028013901423051056105710508F474C006
:1033900049855A856B857C854F5F5F4F6F4F7F4FA7
:1033A0004C155D056E057F0508F466C08B889C880A
:1033B000AD88BE888F89803129F477276F2D5E2DE7
:1033C0004D2D09C0B701A601E7E0769567955795A1
:1033D0004795EA95D1F7840E951EA61EB71E40911B
:1033E000060150910701609108017091090184164E
:1033F0009506A606B70671F48F89803199F4DD240D
:10340000EE24FF24F601EE0FFF1FEB54FD4F518217
:10341000408218C040E0C501B4010E945D188111CE
:10342000EBCF2AC0E894C7F8DD24EE24FF24F60190
:10343000EE0FFF1FEE0FFF1FEB54FD4F4082518236
:10344000628273828091B20281608093B2028A8923
:10345000823080F08D819E81AF81B885880D991D65
:10346000AA1DBB1D8093AE029093AF02A093B00241
:10347000B093B10281E001C080E0DF91CF911F9154
:103480000F91FF90EF90DF90CF90BF90AF909F9003
:103490008F907F906F905F904F9008952F923F9202
:1034A0004F925F926F927F929F92AF92BF92CF9214
:1034B000DF92EF92FF920F931F93CF93DF93CDB7DD
:1034C000DEB760970FB6F894DEBF0FBECDBF5C01CC
:1034D0004D875E876F87788B1901D9014D905D907C
:1034E0006D907C90411451046104710431F0BFEF80
:1034F0004B1A5B0A6B0A7B0A10C0FC0140805180AA
:1035000062807380992493940D851E852F85388958
:10351000013011052105310509F0912CD5011996CD
:103520002D913D914D915C911C972F5F3F4F4F4FD7
:103530005F4F29873A874B875C87730162011D8241
:103540001E821F821886F50181859285A385B48528
:103550000D811E812F813885081719072A073B071F
:1035600008F056C029853A854B855C852C153D05AC
:103570004E055F0550F4A2E0CA2ED12CE12CF12CAF
:10358000B2E04B2E512C612C712C9E012F5F3F4FCE
:10359000B701A601C5010E94BE188823C9F149815F
:1035A0005A816B817C81D701C6010196A11DB11D95
:1035B000452B462B472B19F02C013D010FC0AC01C8
:1035C000BD0144195509660977090D851E852F85AA
:1035D0003889401751076207730779F02D813E81C2
:1035E0004F8158852F5F3F4F4F4F5F4F2D833E8355
:1035F0004F8358876C017D01A6CF0FEF1FEF2FEF90
:103600003FE0B701A601C5010E94AD19811118C0A4
:1036100080E041C0D701C6010197A109B1098D839E
:103620009E83AF83B88797018601AC01BD01C501B8
:103630000E94AD19882361F3CD80DE80EF80F8848D
:103640004C145D046E047F0428F3D1014D915D910B
:103650006D917C91411551056105710599F4F10158
:1036600040825182628273829920A1F0FFEF4F1A4B
:103670005F0A6F0A7F0AD5014D925D926D927C922E
:10368000139708C093018201C5010E94AD198111F1
:10369000E6CFBECF81E060960FB6F894DEBF0FBED6
:1036A000CDBFDF91CF911F910F91FF90EF90DF90F1
:1036B000CF90BF90AF909F907F906F905F904F9012
:1036C0003F902F900895AF92BF92CF92DF92EF92EA
:1036D000FF920F931F93CF93DF9300D000D0CDB70D
:1036E000DEB75C016A017B0182E090E0A0E0B0E01F
:1036F000F50180839183A283B3839E012F5F3F4FA7
:10370000B701A601C5010E94BE18882311F100E08F
:1037100010E09801B701A601C5010E94AD198823E8
:10372000C1F0C980DA80EB80FC80F50187898031A7
:1037300029F488EF9FEFA0E0B0E004C088EF9FEF8E
:10374000AFEFBFE0C816D906EA06FB06B0F281E08B
:1037500001C080E00F900F900F900F90DF91CF91FC
:103760001F910F91FF90EF90DF90CF90BF90AF909F
:1037700008958F929F92AF92BF92CF92DF92EF9275
:10378000FF920F931F93CF93DF93EC01142F70934D
:10379000B4026093B302442341F1453010F080E05D
:1037A000EFC040E060E070E0CB010E945D1888232C
:1037B000B1F320E1129FF0011124ED59FB4F8081FC
:1037C0008F7769F784859585A685B78584369105B9
:1037D000A105B10520F3C084D184E284F384C1142F
:1037E000D104E104F10421F4DACFC12CD12C76010B
:1037F00040E0C701B6010E945D18882381F28091E4
:10380000C0029091C1028115924049F63091C502E3
:10381000332329F28091C3029091C402892B09F4C9
:10382000BECF2091C202222309F4B9CF3A8B2C8358
:103830001D8630E041E050E06D85062FCA01062E5E
:1038400002C0880F991F0A94E2F72817390731F050
:1038500081E0860F8D87683078F3A1CF2091CB026D
:103860003091CC022115310519F040E050E008C03C
:103870002091D9023091DA024091DB025091DC02B2
:103880002D833E834F8358878091C3029091C40259
:1038900046015701880E991EA11CB11C8B8A9C8A77
:1038A000AD8ABE8AE091C602F091C702F98FE88F17
:1038B000A091C502B0E00E946321680D791D8A1DA8
:1038C0009B1D6A8F7B8F8C8F9D8F15E0EE0FFF1FE6
:1038D0001A95E1F7E150FE4FEF2FFF27E695DC0147
:1038E000CB018E0F9F1FA11DB11D8E879F87A88BB7
:1038F000B98B8090C8029090C9028114910419F08C
:10390000A12CB12C08C08090D5029090D602A09036
:10391000D702B090D802A7019601281B390B4A0B99
:103920005B0BDA01C901880D991DAA1DBB1D04C0DE
:10393000B695A795979587950A95D2F789879A871F
:10394000AB87BC87853F3FE09307A105B10510F425
:103950008CE014C0853F9F4FA105B10510F480E1B4
:103960000DC08091E1029091E202A091E302B0913A
:10397000E4028A8F9B8FAC8FBD8F80E28F8B81E0BA
:10398000DF91CF911F910F91FF90EF90DF90CF903B
:10399000BF90AF909F908F90089508958230E8F483
:1039A000E82FF0E0EE0FFF1FE65FFE4F71836083AC
:1039B000813041F0809169008C7F842B8093690075
:1039C000E89A089580916900440F551F440F551FD0
:1039D000837F842B80936900E99A08951F920F9248
:1039E0000FB60F9211242F933F934F935F936F93D2
:1039F0007F938F939F93AF93BF93EF93FF93E09148
:103A00000A01F0910B010995FF91EF91BF91AF91E0
:103A10009F918F917F916F915F914F913F912F91E6
:103A20000F900FBE0F901F9018951F920F920FB618
:103A30000F9211242F933F934F935F936F937F9334
:103A40008F939F93AF93BF93EF93FF93E0910C01FC
:103A5000F0910D010995FF91EF91BF91AF919F9169
:103A60008F917F916F915F914F913F912F910F9027
:103A70000FBE0F901F9018951F920F920FB60F92C6
:103A800011242F933F938F939F93AF93BF93809174
:103A9000B6049091B704A091B804B091B9043091E4
:103AA000B50423E0230F2D3720F40196A11DB11D8D
:103AB00005C026E8230F0296A11DB11D2093B50471
:103AC0008093B6049093B704A093B804B093B9045C
:103AD0008091BA049091BB04A091BC04B091BD0444
:103AE0000196A11DB11D8093BA049093BB04A093CD
:103AF000BC04B093BD04BF91AF919F918F913F9152
:103B00002F910F900FBE0F901F9018952FB7F8941C
:103B10006091B6047091B7048091B8049091B90493
:103B20002FBF08953FB7F8948091BA049091BB04D9
:103B3000A091BC04B091BD0426B5A89B05C02F3F41
:103B400019F00196A11DB11D3FBF6627782F892F5F
:103B50009A2F620F711D811D911D42E0660F771F24
:103B6000881F991F4A95D1F70895CF92DF92EF925F
:103B7000FF92CF93DF936B017C010E94921DEB01BA
:103B8000C114D104E104F10489F00E9434210E949F
:103B9000921D6C1B7D0B683E734090F381E0C81A48
:103BA000D108E108F108C851DC4FEACFDF91CF918D
:103BB000FF90EF90DF90CF9008958230910538F01C
:103BC000880F991F880F991F05970197F1F708959E
:103BD000789484B5826084BD84B5816084BD85B5E8
:103BE000826085BD85B5816085BDEEE6F0E08081AF
:103BF00081608083E1E8F0E01082808182608083D0
:103C0000808181608083E0E8F0E080818160808352
:103C1000E1EBF0E0808184608083E0EBF0E0808184
:103C200081608083EAE7F0E0808184608083808126
:103C300082608083808181608083808180688083CE
:103C40001092C1000895833081F028F4813099F0FA
:103C50008230A1F008958730A9F08830B9F084301F
:103C6000D1F4809180008F7D03C0809180008F7798
:103C700080938000089584B58F7702C084B58F7DCE
:103C800084BD08958091B0008F7703C08091B0000B
:103C90008F7D8093B0000895CF93DF9390E0FC0177
:103CA000E457FF4F2491FC01E056FF4F8491882395
:103CB00049F190E0880F991FFC01E853FF4FA5914F
:103CC000B49182549F4FFC01C591D4919FB761116B
:103CD00008C0F8948C91209582238C93888182234C
:103CE0000AC0623051F4F8948C91322F30958323BE
:103CF0008C938881822B888304C0F8948C91822BCA
:103D00008C939FBFDF91CF9108950F931F93CF9313
:103D1000DF931F92CDB7DEB7282F30E0F901E858C6
:103D2000FF4F8491F901E457FF4F1491F901E056D8
:103D3000FF4F04910023C9F0882321F069830E947A
:103D4000231E6981E02FF0E0EE0FFF1FE254FF4FCA
:103D5000A591B4919FB7F8948C91611103C010950F
:103D6000812301C0812B8C939FBF0F90DF91CF9156
:103D70001F910F910895CF93DF93282F30E0F90121
:103D8000E858FF4F8491F901E457FF4FD491F901AE
:103D9000E056FF4FC491CC2391F081110E94231E65
:103DA000EC2FF0E0EE0FFF1FEC54FF4FA591B49104
:103DB0002C912D2381E090E021F480E002C080E08E
:103DC00090E0DF91CF910895FC01818D228D90E0EC
:103DD000805C9F4F821B91098F7399270895FC0186
:103DE000918D828D981731F0828DE80FF11D858DB0
:103DF00090E008958FEF9FEF0895FC01918D828DE3
:103E0000981761F0828DDF01A80FB11D5D968C912E
:103E1000928D9F5F9F73928F90E008958FEF9FEF39
:103E2000089581E890E2892B49F080E090E0892BA9
:103E300029F00E94812081110C9400000895FC015A
:103E4000848DDF01A80FB11DA35ABF4F2C91848D23
:103E500090E001968F739927848FA689B7892C9358
:103E6000A089B1898C9180648C93938D848D9813F3
:103E700006C00288F389E02D80818F7D80830895BC
:103E8000CF93DF93EC01888D8823C9F0EA89FB8901
:103E9000808185FD05C0A889B9898C9186FD0FC0F8
:103EA0000FB607FCF5CF808185FFF2CFA889B989CD
:103EB0008C9185FFEDCFCE010E941F1FE7CFDF91D0
:103EC000CF910895CF92DF92FF920F931F93CF93DC
:103ED000DF931F92CDB7DEB76C0181E0D601589613
:103EE0008C9358975B969C915B975C968C915C97B2
:103EF000981307C05096ED91FC915197808185FDF4
:103F00002EC0F601038D10E00F5F1F4F0F731127B6
:103F1000F02EF601848DF81211C00FB607FCF9CF10
:103F2000D6015096ED91FC915197808185FFF1CF9C
:103F3000C60169830E941F1F6981EBCF838DE80F43
:103F4000F11DE35AFF4F6083D6015B960C935B979C
:103F50005296ED91FC915397808180620CC0D601FE
:103F60005696ED91FC91579760835096ED91FC9198
:103F7000519780818064808381E090E00F90DF9191
:103F8000CF911F910F91FF90DF90CF900895BF9236
:103F9000CF92DF92EF92FF92CF93DF93EC016A0111
:103FA0007B01B22EE889F98982E08083411581EE98
:103FB000580761057105A1F060E079E08DE390E0BC
:103FC000A70196010E94412121503109410951095F
:103FD0005695479537952795211580E1380798F034
:103FE000E889F989108260E874E88EE190E0A70121
:103FF00096010E94412121503109410951095695EC
:10400000479537952795EC85FD853083EE85FF85AF
:104010002083188EEC89FD89B082EA89FB89808132
:1040200080618083EA89FB89808188608083EA8956
:10403000FB89808180688083EA89FB8980818F7D0C
:104040008083DF91CF91FF90EF90DF90CF90BF9072
:1040500008951F920F920FB60F9211242F938F93F2
:104060009F93EF93FF93E091CE04F091CF04808172
:10407000E091D404F091D50482FD12C0908180912A
:10408000D7048F5F8F732091D804821751F0E0918D
:10409000D704F0E0E254FB4F958F8093D70401C022
:1040A0008081FF91EF919F918F912F910F900FBE83
:1040B0000F901F9018951F920F920FB60F92112418
:1040C0002F933F934F935F936F937F938F939F9320
:1040D000AF93BF93EF93FF938EEB94E00E941F1F6B
:1040E000FF91EF91BF91AF919F918F917F916F91D0
:1040F0005F914F913F912F910F900FBE0F901F90A6
:1041000018958EEB94E00E94E41E21E0892B09F4BF
:1041100020E0822F08951092C1041092C00488EE0E
:1041200093E0A0E0B0E08093C2049093C304A09316
:10413000C404B093C5048BED91E09093BF048093C9
:10414000BE0485EC90E09093CB048093CA0484EC89
:1041500090E09093CD048093CC0480EC90E0909319
:10416000CF048093CE0481EC90E09093D1048093AF
:10417000D00482EC90E09093D3048093D20486EC38
:1041800090E09093D5048093D4041092D7041092B9
:10419000D8041092D9041092DA040895CF92DF92D5
:1041A000EF92FF920F931F93CF93DF937C016A01ED
:1041B000EB0100E010E00C151D0571F06991D701CD
:1041C000ED91FC910190F081E02DC7010995892BBB
:1041D00019F00F5F1F4FEFCFC801DF91CF911F91F3
:1041E0000F91FF90EF90DF90CF90089561157105CA
:1041F00081F0DB010D900020E9F7AD01415051093C
:10420000461B570BDC01ED91FC910280F381E02D00
:10421000099480E090E008950C94F62067EE71E038
:104220000C94F6200F931F93CF93DF93EC010E9421
:10423000F6208C01CE010E940E21800F911FDF918C
:10424000CF911F910F91089508950E94E81D0E943B
:1042500024210E94B201C1E1DFE10E948302209784
:10426000E1F30E94111FF9CF0895991B79E004C072
:10427000991F961708F0961B881F7A95C9F78095A5
:104280000895A1E21A2EAA1BBB1BFD010DC0AA1F97
:10429000BB1FEE1FFF1FA217B307E407F50720F0AF
:1042A000A21BB30BE40BF50B661F771F881F991F2A
:1042B0001A9469F760957095809590959B01AC0173
:1042C000BD01CF0108950E947421A59F900DB49F58
:1042D000900DA49F800D911D11240895EE0FFF1FD6
:1042E0000590F491E02D0994A29FB001B39FC00105
:1042F000A39F700D811D1124911DB29F700D811D12
:104300001124911D0895CF93DF938230910510F40D
:1043100082E090E0E0915D05F0915E0520E030E004
:10432000A0E0B0E0309739F140815181481759073A
:10433000B8F04817590771F482819381109729F0DA
:1043400013969C938E9312972CC090935E05809346
:104350005D0527C02115310531F04217530718F0CC
:10436000A901DB0101C0EF019A01BD01DF0102805B
:10437000F381E02DD7CF21153105F9F0281B390B3A
:104380002430310580F48A819B816115710521F00B
:10439000FB019383828304C090935E0580935D0547
:1043A000FE01329644C0FE01E20FF31F8193919308
:1043B00022503109398328833AC020915B0530911E
:1043C0005C05232B41F420910201309103013093CD
:1043D0005C0520935B0520910001309101012115BE
:1043E000310541F42DB73EB74091040150910501CC
:1043F000241B350BE0915B05F0915C05E217F30798
:10440000A0F42E1B3F0B2817390778F0AC014E5F44
:104410005F4F2417350748F04E0F5F1F50935C0520
:1044200040935B058193919302C0E0E0F0E0CF01FF
:10443000DF91CF910895CF93DF93009709F487C060
:10444000FC01329713821282C0915D05D0915E0506
:10445000209781F420813181280F391F80915B05DD
:1044600090915C058217930779F5F0935C05E093D2
:104470005B056DC0DE0120E030E0AE17BF0750F4F1
:1044800012964D915C9113979D014115510509F1CB
:10449000DA01F3CFB383A28340815181840F951F4A
:1044A0008A179B0771F48D919C911197840F951F2A
:1044B00002969183808312968D919C91139793839A
:1044C00082832115310529F4F0935E05E0935D05A3
:1044D0003EC0D9011396FC93EE9312974D915D91D6
:1044E000A40FB51FEA17FB0779F480819181840F2F
:1044F000951F0296D90111969C938E938281938188
:1045000013969C938E931297E0E0F0E08A819B8152
:10451000009719F0FE01EC01F9CFCE010296288137
:104520003981820F931F20915B0530915C0528171C
:10453000390769F4309729F410925E0510925D05F1
:1045400002C013821282D0935C05C0935B05DF9199
:10455000CF910895FB01DC0104C08D910190801979
:1045600021F441505040C8F7881B990B0895FB0176
:10457000DC010D900020E9F7119701900D920020C9
:10458000E1F70895FC018191861721F08823D9F77E
:10459000992708953197CF010895FB01DC0141501F
:1045A000504048F001900D920020C9F701C01D92C3
:0C45B00041505040E0F70895F894FFCF10
:1045BC0000005F058000FFFFFFFFCD1CCD1C537476
:1045CC00617274696E672E2E2E005653313035335E
:1045DC00206F6B0053442063617264206F6B005634
:1045EC00533130353320696E746572727570742076
:1045FC006F6B002F616C61726D2F002F616C61729B
:10460C006D2F64656661756C742E6D7033002F733D
:10461C00636865642F002F73636865642F64656637
:10462C0061756C742E6D7033002F6576656E742F0A
:10463C00002F6576656E742F64656661756C742EDB
:10464C006D7033002F616D622F002F616D622F64CE
:10465C00656661756C742E6D7033002F74616C6BB4
:10466C002F005F002F636F6E742F00020003010098
:10467C00000000D609EC09D10A260A300A070A0004
:10468C000000001118CE2000000000621FCE20E4B4
:10469C001EFD1EEF1E401F0D0A006E616E00696E3E
:0646AC0066006F76660057
:107E0000112484B714BE81FFF0D085E080938100F7
:107E100082E08093C00088E18093C10086E0809377
:107E2000C20080E18093C4008EE0C9D0259A86E02C
:107E300020E33CEF91E0309385002093840096BBD3
:107E4000B09BFECF1D9AA8958150A9F7CC24DD24C4
:107E500088248394B5E0AB2EA1E19A2EF3E0BF2EE7
:107E6000A2D0813461F49FD0082FAFD0023811F036
:107E7000013811F484E001C083E08DD089C08234E0
:107E800011F484E103C0853419F485E0A6D080C0E4
:107E9000853579F488D0E82EFF2485D0082F10E0AE
:107EA000102F00270E291F29000F111F8ED06801E7
:107EB0006FC0863521F484E090D080E0DECF843638
:107EC00009F040C070D06FD0082F6DD080E0C81688
:107ED00080E7D80618F4F601B7BEE895C0E0D1E017
:107EE00062D089930C17E1F7F0E0CF16F0E7DF06D8
:107EF00018F0F601B7BEE89568D007B600FCFDCFD4
:107F0000A601A0E0B1E02C9130E011968C91119780
:107F100090E0982F8827822B932B1296FA010C0160
:107F200087BEE89511244E5F5F4FF1E0A038BF0790
:107F300051F7F601A7BEE89507B600FCFDCF97BE46
:107F4000E89526C08437B1F42ED02DD0F82E2BD052
:107F50003CD0F601EF2C8F010F5F1F4F84911BD097
:107F6000EA94F801C1F70894C11CD11CFA94CF0C13
:107F7000D11C0EC0853739F428D08EE10CD085E9AC
:107F80000AD08FE07ACF813511F488E018D01DD067
:107F900080E101D065CF982F8091C00085FFFCCF94
:107FA0009093C60008958091C00087FFFCCF809118
:107FB000C00084FD01C0A8958091C6000895E0E648
:107FC000F0E098E1908380830895EDDF803219F02E
:107FD00088E0F5DFFFCF84E1DECF1F93182FE3DFCA
:107FE0001150E9F7F2DF1F91089580E0E8DFEE27F6
:047FF000FF270994CA
:027FFE00040479
:0400000300007E007B
:00000001FF
