:100000000C946D000C94F71C0C941E1D0C94950020
:100010000C9495000C9495000C9495000C945C0144
:100020000C9495000C9495000C9495000C949500FC
:100030000C9495000C9495000C9472070C94950008
:100040000C94451D0C9495000C9432200C94642063
:100050000C9495000C9495000C9495000C949500CC
:100060000C94CA000C9495007C3C3E5E2B3D3F2FC7
:100070005B5D3B2C2A225C000000000800020100AE
:100080000003040700000000000000000102040853
:1000900010204080010204081020010204081020F2
:1000A000040404040404040402020202020203031E
:1000B00003030303000000002300260029000000C2
:1000C0000000250028002B0000000000240027006D
:1000D0002A004305CF0DFA10942011241FBECFEF44
:1000E000D8E0DEBFCDBF11E0A0E0B1E0EEECF5E47A
:1000F00002C005900D92A83FB107D9F725E0A8EFFF
:10010000B1E001C01D92A136B207E1F710E0CAEDDF
:10011000D0E004C02297FE010E947921C23DD107A0
:10012000C9F70E942E210C94E5220C940000F8944B
:1001300080914F0290E0982F882720915002822BC7
:100140001092500210924F0278940895109201027A
:1001500082E18093B80081E08093B90085E48093C8
:10016000BA008FEF8093BB0085EC8093BC001092A7
:1001700003027894089591E0909301028093000225
:100180007093FF016093FE0185EA8093BC0010929A
:10019000030208951F920F920FB60F9211248F93AE
:1001A0009F938091B9008C7F809302028091B90067
:1001B0008C7F803309F469C090F4883111F148F4E0
:1001C000882309F45FC0883009F05DC08091000287
:1001D00053C0803209F459C08832C1F054C080380D
:1001E000F9F048F4883309F450C0803609F04BC068
:1001F0001092030248C0883A41F1883B09F43FC09D
:1002000042C0109203028091FF0136C08091030228
:100210008F5F809303028230C1F18091FE012CC078
:1002200080910302811105C09091BB00909351020F
:1002300008C090915102909350029091BB0090930E
:100240004F028F5F809303021EC0109203028091C1
:100250005102813041F49091470280914E029923DE
:1002600059F0886009C0803119F480914C0204C0B3
:10027000813129F480914D028093BB0004C010921B
:10028000BB0001C0FFCF80E001C081E0909101027E
:10029000911102C085EC07C0882321F01092010261
:1002A00085ED01C085E88093BC009F918F910F90F0
:1002B0000FBE0F901F9018951F920F920FB60F92BE
:1002C00011242F933F934F935F936F937F938F935B
:1002D0009F93AF93BF93EF93FF938091FD018F5F47
:1002E0008D3719F08093FD013DC01092FD01809182
:1002F000FB019091FC01019731F41092FA0184E026
:1003000092E00E940E088091FB019091FC01009701
:1003100029F001979093FC018093FB018091F801F3
:100320009091F90101969093F9018093F8010A9751
:1003300049F41092F9011092F80166E073E182E34A
:100340000E94BB0080910601811109C061E085E037
:100350000E94551E60E085E00E948E1E03C0815001
:1003600080930601FF91EF91BF91AF919F918F9183
:100370007F916F915F914F913F912F910F900FBEA1
:100380000F901F9018950E94A60082E08093B00005
:1003900087E08093B10083E88093B3008091700080
:1003A00082608093700061E08AE00E94551E61E0E7
:1003B0008AE00E948E1E61E084E00E94551E61E08A
:1003C00084E00E948E1E84B58F7084BD60E082E060
:1003D0000E94551E26E040E855E260E070E080ECA7
:1003E00094E00E94D01F6FE071E080EC94E00E94E6
:1003F000152184E092E00E944709811104C0809198
:100400004E028E7F09C06BE171E080EC94E00E94A7
:100410001B2180914E02816080934E0264E082E64F
:1004200092E00E941D0C811108C044EF51E064E489
:1004300084E092E00E944F09F1CF65E271E080EC28
:1004400094E00E941B2180914E02826080934E02B4
:100450002FE088E190E00FB6F894A89580936000B3
:100460000FBE2093600040E060E084E092E00E94D4
:10047000AB0865E084E092E00E94CF05811104C0E2
:1004800080914E028B7F09C060E371E080EC94E0C4
:100490000E941B2180914E02846080934E02089539
:1004A000FB016AE00E943E21805D8083905D918324
:1004B0008EE282838DE6838380E7848383E3858372
:1004C00016820895FB018A3020F4805D80831182BA
:1004D00008956AE00E943E21805D8083905D918353
:1004E00012820895CF93DF93EC0180914702882315
:1004F00039F0BE0184E092E0DF91CF910C942006A8
:1005000064E082E692E00E941D0CBE0182E692E069
:10051000DF91CF910C94C40DCF93DF93CDB7DEB7AD
:10052000A6970FB6F894DEBF0FBECDBF83B7817F0D
:1005300083BFB12CC12CD12CF12CEE24E3940E946A
:1005400097008C0183B7816083BF889583B78E7FC6
:1005500083BF980133272930310509F492C1E0F4B3
:100560002530310509F41DC150F42330310509F45B
:1005700096C008F0D5C02230310591F172C2273003
:10058000310509F46DC108F07AC1412F612F84E073
:1005900092E00E94AB0865C22D30310509F499C183
:1005A00080F42B30310509F48CC108F08EC1312F55
:1005B0003F71F32E012F1127029506950770D02E5B
:1005C00050C22131310509F43DC22A3A310509F4FE
:1005D0003CC22031310509F044C210934C0241C2A3
:1005E00019821A8E64E471E0CE0101960E94C02245
:1005F00017FF03C0E092FA0102C01092FA01BE0197
:10060000665E7F4F812F8F770E945002BE01665E2B
:100610007F4FCE0101960E94C022A895809147028B
:10062000882361F084E092E00E940E08A89562E3BE
:1006300070E080E090E00E94BE1DA895A89564E05F
:1006400082E692E00E941D0CBE016F5F7F4F84E046
:1006500092E00E94200881110EC019826CE471E0C2
:10066000CE0101960E94C022BE016F5F7F4F84E0E1
:1006700092E00E94200820914D0280914C022111AD
:1006800003C0882309F4EDC190E03CE3239F800D73
:10069000911D11249093FC018093FB01E2C119820A
:1006A0001A8E6FE571E0CE0101960E94C02217FFFD
:1006B00003C0E092FA0102C01092FA01BE01665E28
:1006C0007F4F812F8F770E945002BE01665E7F4F61
:1006D000CE0101960E94C022A895809147028823EE
:1006E00061F084E092E00E940E08A89562E370E059
:1006F00080E090E00E94BE1DA895A89564E082E687
:1007000092E00E941D0CBE016F5F7F4F84E092E07B
:100710000E942008811190C0198267E671E081C0B3
:1007200019821A8E6AE771E0CE0101960E94C022FA
:1007300017FF03C0E092FA0102C01092FA01BE0155
:10074000665E7F4F812F8F770E945002BE01665EEA
:100750007F4FCE0101960E94C022A895809147024A
:10076000882361F084E092E00E940E08A89562E37D
:1007700070E080E090E00E94BE1DA895A89564E01E
:1007800082E692E00E941D0CBE016F5F7F4F84E005
:1007900092E00E94200881114FC0198262E871E046
:1007A00040C019821A8E65E971E0CE0101960E945F
:1007B000C02217FF03C0E092FA0102C01092FA01B2
:1007C000BE01665E7F4F812F8F770E945002BE016F
:1007D000665E7F4FCE0101960E94C022A89580914F
:1007E0004702882361F084E092E00E940E08A895F9
:1007F00062E370E080E090E00E94BE1DA895A8959D
:1008000064E082E692E00E941D0CBE016F5F7F4FA4
:1008100084E092E00E94200881110EC019826BE9E9
:1008200071E0CE0101960E94C022BE016F5F7F4F32
:1008300084E092E00E94200880914D0220914C02B9
:10084000811103C0222309F40CC130E09CE3899F8D
:10085000200D311D11243093FC012093FB0101C1B7
:100860001092FA0184E092E00E940E08A89562E3DB
:1008700070E080E090E00E94BE1DA895F2C0F12ECD
:10088000F0C019821A8E6CEA71E0CE0101960E94C6
:10089000C022BE01665E7F4F8F2D0E946202BE01A4
:1008A000665E7F4FCE0101960E94C02263EB71E02D
:1008B000CE0101960E94C022BE01665E7F4F812F4D
:1008C00095C0812F8F71C82ECCC0912F9F70B92EEB
:1008D000C8C019821A8E65EB71E0CE0101960E94A4
:1008E000C022BE01665E7F4F8F2D0E946202BE0154
:1008F000665E7F4FCE0101960E94C02263EB71E0DD
:10090000CE0101960E94C022BE01665E7F4F812FFC
:100910000E946202BE01665E7F4FCE0101960E9478
:10092000C02263EB71E0CE0101960E94C022BE019D
:10093000665E7F4F8C2D0E946202BE01665E7F4F15
:10094000CE0101960E94C02263EB71E0CE010196B8
:100950000E94C022BE01665E7F4F8B2D0E94620204
:10096000BE01665E7F4FCE0101960E94C02267EAFB
:1009700071E0CE0101960E94C022A895CE01019699
:100980000E947202811148C019821A8E65EB71E0D3
:10099000CE0101960E94C022BE01665E7F4F8F2D60
:1009A0000E946202BE01665E7F4FCE0101960E94E8
:1009B000C02263EB71E0CE0101960E94C022BE010D
:1009C000665E7F4F812F0E946202BE01665E7F4F8E
:1009D000CE0101960E94C02263EB71E0CE01019628
:1009E0000E94C022BE01665E7F4F8D2D0E94620272
:1009F000BE01665E7F4FCE0101960E94C02267EA6B
:100A000071E0CE0101960E94C022A895CE01019608
:100A10000E947202882329F11092FA0184E092E088
:100A20000E940E08A89562E370E080E090E00E94CA
:100A3000BE1DA895BE016F5F7F4F84E092E00E94CB
:100A400020080FC010934D020CC02EE088E190E00A
:100A50000FB6F894A895809360000FBE20936000B5
:100A6000FFCFA8958091FA01882309F468CD809181
:100A70004702811164CDBE016F5F7F4F84E092E039
:100A80000E9420085CCDEF920F9344E0E42E03E037
:100A900028E04AE069E084E092E00E94FE050F91C0
:100AA000EF900895CF93CFB7F894809155028111BC
:100AB00027C0EAEAF0E08491E6E9F0E09491E82FBB
:100AC000F0E0EE0FFF1FE853FF4FA591B4918C911A
:100AD000892321F461E08AE00E948E1E61E08AE0B1
:100AE0000E94551E8CB580618CBD8CB580648CBD18
:100AF00061E08DE00E94551E61E08BE00E94551E72
:100B0000809155028F5F80935502CFBFCF9108959A
:100B10002FB7F894882339F0813039F082E0809340
:100B2000540290E003C091E001C092E08091530232
:100B3000892B8093530280915402811103C081E07C
:100B4000809354022FBF089520915402222399F0DC
:100B50003FB7F89420915402213059F42DB32093DB
:100B600052024DB320915302209524232DBB3FBF49
:100B700002C0309352028CBD9DBD089580915402F5
:100B8000882361F09FB7F89420915402809152021B
:100B9000213019F48DBB9FBF08958FBF0895CF9367
:100BA00090936102809360026F3F41F48FEA87BDAA
:100BB00080916E00826080936E001BC06530D9F416
:100BC000FC0180A1823029F08330A9F482E090E01A
:100BD00002C080E090E0FC01E354FE4FC0818C2F06
:100BE0000E94880541E050E06AE977E08C2F0E947E
:100BF000D71C81E001C080E0CF9108950F93CF937F
:100C0000DF93EC0119A21AA21BA281E08FA36CA3AF
:100C10004DA32EA308A3CE0188960E949D0AFE0133
:100C2000ED5BFF4F1082CC5BDF4F61E088810E945B
:100C3000551E61E08881DF91CF910F910C948E1E3B
:100C40000F931F93CF93DF938B01FC01EA5BFF4F60
:100C500071836083EC01CB5BDF4F21E02883339706
:100C60002881213091F420812111FACF6AE082E6B7
:100C700092E00E941D0C1882B80182E692E0DF919A
:100C8000CF911F910F910C94C40D988181E0911127
:100C900001C080E0DF91CF911F910F910895FC0179
:100CA00080A10E94C41E21E0892B09F420E0822F3C
:100CB00008951F93CF93DF93FC0187A1882339F018
:100CC0001EBC00000DB407FEFDCF8EB529C0A0915B
:100CD0005C02B0915D0210915802E0915E02F091C9
:100CE0005F02D0915902CD2FC09527E030E080E01F
:100CF00041E050E09C91912339F0BA01022E01C0ED
:100D0000660F0A94EAF7862B90819D2B9083908141
:100D10009C2390832150310968F790819C23908314
:100D2000DF91CF911F910895CF93DF93FC0187A1AD
:100D3000882339F06EBD00000DB407FEFDCF8EB5DF
:100D40002DC0E0915E02F0915F0250915902452F53
:100D50004095A0915A02B0915B02C0915702DC2FDE
:100D6000D09587E090E070E02081242320839B01D0
:100D7000082E02C0359527950A94E2F720FF03C09C
:100D80002C912C2B02C02C912D232C932081252BD0
:100D90002083019748F7808184238083DF91CF915E
:100DA0000895CF92DF92EF92FF920F931F93CF930C
:100DB000DF93EC01F62ED72EE42E8FA1882321F0AD
:100DC00080E591E00E94A40560E08EA10E948E1E45
:100DD000CF2C0F2D1D2D802F8C198E1538F4F80176
:100DE00061918F01CE010E949406F5CF61E08EA142
:100DF0000E948E1E8FA1882351F0DF91CF911F9109
:100E00000F91FF90EF90DF90CF900C94BE05DF9193
:100E1000CF911F910F91FF90EF90DF90CF900895A9
:100E2000EF92FF920F931F93CF93DF93EC018FB755
:100E3000F89490915602992311F08FBF4CC091E025
:100E4000909356028FBF7E0183E4E80EF11CF701F8
:100E500080818823F1F18E01085D1F4FC8010E9437
:100E60001B0B8823B1F1CE010E944F06882389F124
:100E7000CE010E944F068823A9F040E250E0BE0157
:100E8000C8010E94B00A1816190634F0F701108242
:100E9000C8010E94090B1DC0482FBE01CE010E944F
:100EA000D106E6CF8E010B5B1F4FF80180818130A8
:100EB00081F4CA5BDF4F6881798182E692E00E940B
:100EC000C40D882321F08FEFF801808302C0F80160
:100ED000108210925602DF91CF911F910F91FF90D7
:100EE000EF9008951F920F920FB60F9211242F9337
:100EF0003F934F935F936F937F938F939F93AF93A2
:100F0000BF93EF93FF9380916002909161020E94E2
:100F10001007FF91EF91BF91AF919F918F917F91BA
:100F20006F915F914F913F912F910F900FBE0F9056
:100F30001F90189580916002909161020C941007A7
:100F40000F931F93CF93DF93EC01162F8FA188236C
:100F500021F082E590E00E94A40560E08DA10E944E
:100F60008E1E63E0CE010E949406612FCE010E9486
:100F700094068AE090E00E94E61DCE010E94590688
:100F8000082F10E0102F0027CE010E945906082BD1
:100F900061E08DA10E948E1E8FA181110E94BE056D
:100FA000C801DF91CF911F910F910895FF920F9388
:100FB0001F93CF93DF93EC01162F042FF52E8FA1F3
:100FC000882321F082E590E00E94A40560E08DA1D5
:100FD0000E948E1E62E0CE010E949406612FCE0117
:100FE0000E9494066F2DCE010E949406602FCE01C0
:100FF0000E94940661E08DA10E948E1E8FA188231D
:1010000039F0DF91CF911F910F91FF900C94BE05A5
:10101000DF91CF911F910F91FF900895CF93DF93B0
:10102000EC0148E058E460E00E94D607FE01ED5B69
:10103000FF4F1082CE018896DF91CF910C94090B5F
:10104000EF92FF920F931F93CF93DF93CDB7DEB74D
:101050006B970FB6F894DEBF0FBECDBF8C017B013E
:1010600040E058E460E00E94D60749E25EE167E0B4
:10107000C8010E94D60740E050E066E0C8010E9427
:10108000D60721E0A70162E672E0CE0101960E9438
:10109000360D8B819C81F80193A782A78D819E815B
:1010A000AF81B88584A795A7A6A7B7A749855A8514
:1010B0006B857C8540AB51AB62AB73AB8DE0FE01C1
:1010C0003D96D801D49601900D928A95E1F7F801EA
:1010D000EF5BFF4F8A8D9B8D91838083C80188963B
:1010E0000E941B0B882311F140E050E064E0C8012E
:1010F0000E94D60740E050E064E0C8010E94D60795
:101100007801F3E4EF0EF11C81E0F7018083C80160
:101110000E944F068823D9F3F7018081882341F08C
:10112000C8010E944F06811105C002C080E006C0C0
:1011300081E004C0C8010E941007EECF6B960FB685
:10114000F894DEBF0FBECDBFDF91CF911F910F91FD
:10115000FF90EF90089570E0762F6627F894642B47
:10116000AB016BE00E94D6077894089544E058E004
:1011700060E00E94D60764E670E080E090E00C94A6
:10118000BE1DCF93DF93EC018CA187FD0DC060E005
:101190000E948E1E64E670E080E090E00E94BE1D1A
:1011A00061E08CA10E948E1E61E08DA10E948E1EC6
:1011B00061E08EA10E948E1E64E670E080E090E007
:1011C0000E94BE1DCE010E94B60864E670E080E079
:1011D00090E00E94BE1D40E050E663E0CE010E9418
:1011E000D60748E268E2CE01DF91CF910C94AB08BC
:1011F000CF93DF93EC018CA187FD07C061E00E94D3
:10120000551E60E08CA10E948E1E61E08DA10E949F
:10121000551E61E08DA10E948E1E61E08EA10E948C
:10122000551E61E08EA10E948E1E60E088A10E9482
:10123000551E8FA181110DC061E089A10E94551E2C
:1012400061E08BA10E94551E60E08AA10E94551E9C
:101250000EC00E9452058CB5837F8CBD8CB58F7DEE
:101260008CBD8CB583608CBD8DB58E7F8DBDCE0160
:101270000E94C10861E0CE010E94A00734E096956B
:1012800087953A95E1F78F70DF91CF9108950E948D
:10129000F80891E0843009F090E0892F0895FF92DA
:1012A0000F931F93CF93DF93EC01F62E8A010E94D8
:1012B000C10860E0CE010E94A007AC01406260E07E
:1012C000CE010E94D60788A10E94C41E892BD9F3A3
:1012D0008FA1882321F080E591E00E94A40560E0C1
:1012E0008EA10E948E1E63E5CE010E9494066FEED1
:1012F000CE010E9494066EE6CE010E9494066F2DE8
:10130000CE010E94940660E0CE010E94940660E047
:10131000CE010E94940660E0CE010E94940660E037
:10132000CE010E94940661E08EA10E948E1E8FA1C4
:1013300081110E94BE05B80180E090E00E94BE1DB0
:101340008FA1882321F080E591E00E94A40560E050
:101350008EA10E948E1E65E4CE010E94940668E76D
:10136000CE010E94940669E6CE010E94940664E7CD
:10137000CE010E94940660E0CE010E94940660E0D7
:10138000CE010E94940660E0CE010E94940660E0C7
:10139000CE010E94940661E08EA10E948E1E8FA154
:1013A000882339F0DF91CF911F910F91FF900C941A
:1013B000BE05DF91CF911F910F91FF900895CF93BC
:1013C000DF931F92CDB7DEB76983DC01ED91FC910D
:1013D0000280F381E02D41E050E0BE016F5F7F4F5E
:1013E00009950F90DF91CF910895CF93DF93EC0192
:1013F000898D9A8D009759F0FC01138212820E9408
:101400007B16E98DFA8D22813381232B31F081E027
:1014100090E09B838A8380E090E0DF91CF910895F4
:10142000FC01818D928D009711F00C941B1408958E
:10143000CF93DF931F92CDB7DEB741E050E0BE01FE
:101440006F5F7F4F0E942C12019719F4898190E001
:1014500002C08FEF9FEF0F90DF91CF910895FC01B5
:10146000818D928D009711F00C94180A8FEF9FEFE9
:1014700008950F931F93CF93DF938C01FC01818D0F
:10148000928D0097B9F00E94180AEC018F3FFFEF90
:101490009F0799F0F801818D928DFC01428553855B
:1014A0006485758541505109610971090E947F1356
:1014B000CE0105C080E090E002C08FEF9FEFDF918A
:1014C000CF911F910F910895CF92DF92EF92FF92EB
:1014D0000F931F93CF93DF93EC017B016A011B8273
:1014E0001A8208EE13E020E030E00C831D832E8387
:1014F0003F8384EC91E0998388838DE190E00E94A2
:101500008C219A8F898F009779F02DE1F701DC010A
:1015100001900D922A95E1F74CE050E0B601CE0122
:101520000C960E94D622188EDF91CF911F910F91B9
:10153000FF90EF90DF90CF900895FC01138212820C
:1015400048EE53E060E070E0448355836683778320
:1015500084EC91E091838083128E118E148608951D
:10156000FC01818D928D009711F00C942C1280E07B
:1015700090E00895DC015996ED91FC915A973097CF
:1015800029F0628573858485958508956FEF7FEFD7
:10159000CB010895DC015996ED91FC915A97309753
:1015A00029F06389748985899689089560E070E0DF
:1015B000CB010895CF92DF92EF92FF92CF93DF930A
:1015C000EC01898D9A8D892BD9F0CE010E94CA0A2F
:1015D0006B017C01CE010E94BA0AA7019601261B6D
:1015E000370B480B590BDA01C901811530E8930715
:1015F000A105B10538F08FEF9FE7A0E0B0E002C091
:1016000080E090E0DF91CF91FF90EF90DF90CF905E
:101610000895CF93DF93EC01898D9A8D009741F067
:101620000E946214898D9A8D0E9424221A8E198E2E
:10163000DF91CF910895DC015996ED91FC915A9775
:10164000309721F081E09581911101C080E00895EB
:101650001F93CF93DF93CDB7DEB76D970FB6F89496
:10166000DEBF0FBECDBFAB011C821B8224ED31E07B
:101670003A8329831E8221E0BC01CE0101960E949B
:10168000961511E0811102C010E004C0CE01019650
:101690000E946214812F6D960FB6F894DEBF0FBEC4
:1016A000CDBFDF91CF911F910895CF93DF93FB01C1
:1016B00020813181FC01E20FF31FE081EF3211F450
:1016C0002F5F3F4FDA01E0E0F0E0EC01C20FD31FE3
:1016D000C881CF3249F0CC2339F031962F5F3F4F8C
:1016E000CD93EC30F10589F7E40FF51F1082FC0172
:1016F000E20FF31F40814F3211F42F5F3F4FFB0188
:1017000031832083FC01E20FF31F81E0908191116E
:1017100001C080E0DF91CF9108954F925F926F9268
:101720007F928F929F92AF92BF92CF92DF92EF9271
:10173000FF920F931F93CF93DF93CDB7DEB7C954BA
:10174000D1090FB6F894DEBF0FBECDBF5C016B01AF
:101750003A01490119A218A284ED91E09F8F8E8F62
:101760001BA21C821B829A8389831E822A961FAE2B
:101770001EAE2A978B017E018EE1E80EF11C4424F7
:101780004394AE01455C5F4FBE01685B7F4FC5016E
:101790000E94550B582E482F44259401BE01655CCC
:1017A0007F4FC801F3010995811108C00C151D0573
:1017B00019F0C8010E94621480E027C05520B9F0DA
:1017C00021E0AE01455C5F4FB801C7010E9496154C
:1017D000582E0C151D0599F0C8010E946214552061
:1017E00059F3902F812F8701E92EF82ECACF0C15BF
:1017F0001D0519F0C8010E94621481E006C088230B
:10180000D9F28E010F5F1F4FECCFC75BDF4F0FB6D2
:10181000F894DEBF0FBECDBFDF91CF911F910F9126
:10182000FF90EF90DF90CF90BF90AF909F908F9000
:101830007F906F905F904F9008950F931F93CF9379
:10184000DF93EC01462F61E00E94F20E811102C08D
:1018500080E01DC08E01045F1F4F41E0BE01C80142
:101860000E94C21B882359F0B801CE018A960E94BB
:10187000DC1191E0811101C090E0892F08C040E0A7
:10188000BE01C8010E94C21B882311F3EDCFDF9176
:10189000CF911F910F910895FC01DB0112968D915C
:1018A0009C9113979383828384ED91E0918380834D
:1018B00014968C911497848315968C911597858333
:1018C00016964D915D916D917C9119974683578342
:1018D000608771871A964D915D916D917C911D97EE
:1018E00042875387648775871E964D915D916D91F0
:1018F0007C91519746875787608B718B52968C915C
:101900005297828B53964D915D916D917C91569734
:10191000438B548B658B768B57964D915D916D9172
:101920007C915A97478B508F618F728F5B968D9108
:101930009C915C97948F838F08954F925F926F92E2
:101940007F928F929F92AF92BF92CF92DF92EF924F
:10195000FF920F931F93CF93DF93CDB7DEB7C7549A
:10196000D1090FB6F894DEBF0FBECDBF6C014A019E
:101970003901665D7F4F5E018EE1A80EB11CC50185
:101980000E944C0C1C821B8284ED91E09A83898317
:101990001E828401FE0131967F015A2C4B2C6FE28E
:1019A00070E0C8010E94CB220097E9F1F801208184
:1019B0002F3219F40F5F1F4FF2CF801B8D3008F0CC
:1019C0008CE0A82EB12CA501B801CE01CB960E94C7
:1019D000D622EBE3F0E0EC0FFD1FEA0DFB1D1082B9
:1019E000C7010E94621421E0AE01455C5F4F652D86
:1019F000742DC7010E949615811109C0F60113824A
:101A0000128284ED91E091838083158216C00A0DC5
:101A10001B1D852D942D0E946214C2015E2C4F2C3B
:101A2000E92EF82EBCCF08191909F30111830083A0
:101A3000652D742DC6010E944C0CC601C95BDF4F99
:101A40000FB6F894DEBF0FBECDBFDF91CF911F91CF
:101A50000F91FF90EF90DF90CF90BF90AF909F904D
:101A60008F907F906F905F904F9008959F92AF926C
:101A7000BF92CF92DF92EF92FF920F931F93CF937B
:101A8000DF93CDB7DEB7C955D1090FB6F894DEBFE5
:101A90000FBECDBF7C016B015A01922E9E01285AC8
:101AA0003F4FCE01CB960E949D0C6A960EAD1FADA6
:101AB0006A970A0D1B1DF801808181110AC0BE01C1
:101AC000655C7F4FCE0101960E944C0C49E951E0C4
:101AD00041C019A218A284ED91E09F8F8E8F1BA2A6
:101AE00021968FAD2197811104C0C7010E949D0AE4
:101AF00037C08250823060F4B601665D7F4F292D79
:101B0000A801CE014E960E949615811110C0EDCF0E
:101B1000292DA801BE01655C7F4FCE014E960E9423
:101B20009615882311F3CE01CB960E946214892D5D
:101B3000867041F049A95AA96BA97CA9CE014E969D
:101B40000E947F13BE01625E7F4FCE0101960E940C
:101B50004C0CA801BE016F5F7F4FC7010E94640A51
:101B6000C701C75ADF4F0FB6F894DEBF0FBECDBF17
:101B7000DF91CF911F910F91FF90EF90DF90CF9069
:101B8000BF90AF909F900895FB01BC01665D7F4FB1
:101B900020E030E048E25BE0CF010C948D0B109226
:101BA00067021092680210926B0210926D0282E03E
:101BB00090E0A0E0B0E080936E0290936F02A0935B
:101BC0007002B09371021092850210928F021092EF
:101BD0008E0284ED91E090938D0280938C0210929E
:101BE000910208959FB7F894209154028091520277
:101BF000213019F48DBB9FBF08958FBF08958EBD0E
:101C000000000DB407FEFDCF8EB508958FEF0C9444
:101C1000FF0D61E0FC0184810E948E1E8091AB0269
:101C2000882339F01092AB028091540281110C94F8
:101C3000F20D0895CF93DF93EC018091AB028111F7
:101C400009C081E08093AB028091AC029091AD021B
:101C50000E94A40560E08C81DF91CF910C948E1ED0
:101C6000CF93DF93EC018E81882389F08F81988553
:101C70009C012F5F3F4F38872F838230924018F4AA
:101C80000E94060EF3CFCE010E94090E1E82DF9144
:101C9000CF910895673028F026E1FC01258380E08C
:101CA0000895623081F030F4662359F06130B1F468
:101CB00080E515C0643059F040F0653079F482E574
:101CC0000EC080E505C081E503C081E508C082E55E
:101CD0008093AC0281E08093AD02089583E5809308
:101CE000AC021092AD0281E008950F931F93CF9341
:101CF000DF93EB010E948F1D8B010E94060E8F3F28
:101D000049F00E948F1D601B710B6C177D07A8F3B3
:101D100080E001C081E0DF91CF911F910F91089584
:101D2000CF92DF92FF920F931F93CF93DF9300D058
:101D300000D0CDB7DEB76C01F62E29833A834B83F2
:101D40005C830E94300EC6010E941A0E6CE271E0A4
:101D5000C6010E94750E8F2D80640E94FF0D08E160
:101D600010E05C814B813A812981DA01C901002EA2
:101D700004C0B695A795979587950A94D2F72983BD
:101D80003A834B835C830E94FF0D0850110929811F
:101D90003A814B815C81083F8FEF180731F7FF20B4
:101DA00029F0E8E0FE1621F08FEF03C085E901C0BD
:101DB00087E80E94FF0D10E00E94060EF601828760
:101DC00087FF04C01F3F11F01F5FF6CF0F900F90E9
:101DD0000F900F90DF91CF911F910F91FF90DF90A7
:101DE000CF900895BF92CF92DF92EF92FF920F9320
:101DF0001F93CF93DF93EC01B62E1B8619861E82AC
:101E00001D824C830E948F1D8B0161E08C810E949A
:101E1000551E61E08C810E948E1E0E94520582E553
:101E20008093AC021092AD028091AC029091AD0211
:101E30000E94A4052AE0F22E8FEF0E94FF0DFA9473
:101E4000D9F78091540281110E94F20DCE010E94B7
:101E50001A0E20E030E0A90160E0CE010E94900E51
:101E6000F82E8A8781E0F81649F00E948F1D601BCA
:101E7000710B613D774068F381E04BC02AEA31E0A5
:101E800040E050E068E0CE010E94900E82FF02C068
:101E9000FB860DC094E0F92E0E94060E8A87FA9404
:101EA000D9F78A3A11F082E034C082E08B878B85C3
:101EB000823031F4C12CD12CE12C80E4F82E03C007
:101EC000C12CD12C760120E030E0A90167E3CE01DE
:101ED0000E94900EA701960169E2CE010E94900E29
:101EE0008A87882349F00E948F1D601B710B613D1A
:101EF000774048F388E00DC08B85823031F520E0D3
:101F000030E0A9016AE3CE010E94900E882381F09F
:101F100086E08D83CE010E94090E80E0DF91CF9193
:101F20001F910F91FF90EF90DF90CF90BF90089599
:101F30000E94060E807C803C11F483E08B870E9417
:101F4000060E0E94060E0E94060ECE010E94090E89
:101F50006B2DCE01DF91CF911F910F91FF90EF90EC
:101F6000DF90CF90BF900C944A0E0F931F93CF93A6
:101F7000DF93EC010E948F1D8B010E94060E8A8761
:101F80008F3F49F40E948F1D601B710B6D327140B1
:101F9000A0F38FE003C08E3F39F08DE08D83CE013A
:101FA0000E94090E80E001C081E0DF91CF911F9176
:101FB0000F910895CF92DF92EF92FF920F931F93AC
:101FC000CF93DF93EC0169010115110509F462C09B
:101FD000C801820F931F8130924008F05DC08E814E
:101FE000882371F088819981AA81BB81481759079C
:101FF0006A077B0729F48F819885C816D90610F5E2
:10200000488359836A837B838B85833039F039E039
:10201000440F551F661F771F3A95D1F79A01AB0100
:1020200061E1CE010E94900E882319F083E08D8338
:1020300033C0CE010E94B50F882371F118861F822C
:1020400081E08E838F8198858C159D0540F40E94D8
:10205000060E8F819885019698878F83F3CF67014D
:10206000E00EF11ECE14DF0431F00E94060EF601E0
:1020700081936F01F7CF8F819885800F911F98878B
:102080008F832985222319F08115924018F0CE0103
:102090000E94300E81E004C0CE010E94090E80E053
:1020A000DF91CF911F910F91FF90EF90DF90CF9034
:1020B0000895EF92FF920F931F93790100E012E0D1
:1020C00020E030E00E94DA0F1F910F91FF90EF9017
:1020D0000895CF92DF92EF92FF920F931F93CF93C9
:1020E000DF9300D0CDB7DEB78C01862F49835A83AA
:1020F0000E94FF0D4981C42E5A81D52EE12CF12C6E
:10210000F60181916F010E94FF0DFFEFEF1AFF0AA8
:10211000E11482E0F806A1F78FEF0E94FF0D8FEF28
:102120000E94FF0D0E94060EF80182878F71853094
:1021300039F081E18583C8010E94090E80E001C069
:1021400081E00F900F90DF91CF911F910F91FF9041
:10215000EF90DF90CF9008950F931F93CF93DF936D
:10216000EC018901411551056105710511F482E108
:1021700032C08B85833039F089E0440F551F661FCC
:10218000771F8A95D1F79A01AB0168E1CE010E94D1
:10219000900E882311F084E01EC0A8016EEFCE01DE
:1021A0000E9469108823C1F068E572E0CE010E94A8
:1021B000750E811102C085E10EC020E030E0A9015A
:1021C0006DE0CE010E94900E811104C00E94060EA7
:1021D000882339F084E18D83CE010E94090E80E0CE
:1021E00004C0CE010E94090E81E0DF91CF911F91C2
:1021F0000F91089580E58093AC021092AD0208958E
:10220000CF93DF93EC019C012A5F3F4F41E050E008
:1022100060E070E08B8D9C8D0E94571A8823A1F09E
:102220004F89588D698D7A8D452B462B472B71F43C
:102230004E815F81688579854F8B588F698F7A8F42
:102240008C8180688C8302C080E001C081E0DF91D6
:10225000CF910895CF92DF92EF92FF921F93CF9389
:10226000DF93EC010E940011811102C080E04BC09D
:10227000EB8DFC8DCE80DF80E884F98482E0C81A83
:10228000D108E108F108058404C0CC0CDD1CEE1C6B
:10229000FF1C0A94D2F74685578560897189C40E60
:1022A000D51EE61EF71E148181E0C81AD108E10888
:1022B000F108112361F0C701B601610F711D811D85
:1022C000911D0E94A118882389F21150F2CFEB8D45
:1022D000FC8DC12C82E0D82EE12CF12C058404C0A9
:1022E000CC0CDD1CEE1CFF1C0A94D2F74B895C89D8
:1022F0006D897E894C0D5D1D6E1D7F1D4B8B5C8B2A
:102300006D8B7E8B81E0DF91CF911F91FF90EF90DD
:10231000DF90CF900895CF93DF93EC01462F6E8529
:102320007F85888999890E946618882341F08A8967
:1023300020E2829FC001112489549D4F02C080E099
:1023400090E0DF91CF910895282FFB018BE030E2E0
:1023500031938150E9F7A22FB92F20E037E09D910A
:10236000992319F19E3219F0E8E6F0E008C03A30FE
:1023700011F128E03AE0F3CF31964917E1F04491AA
:102380004111FACF3217B8F04FED490F4E3598F49E
:1023900041E0420FFB01E20FF11D2FE9290F2A3125
:1023A00008F490529083242FDACF81E0FB019081D2
:1023B000903209F480E008950F931F93CF93DF9339
:1023C000EC018B018D81882311F080E040C0FB017E
:1023D00087898031B1F482E08D831F8A188E198E2F
:1023E0001A8E408D518D60E070E095E0440F551FCE
:1023F000661F771F9A95D1F74B8B5C8B6D8B7E8B0D
:1024000015C0803211F783E08D83FB01428D538D1F
:10241000648D758D4F8B588F698F7A8F9E012D5EDD
:102420003F4FC8010E944B19882379F21C8F0B8FF4
:1024300081E08C831E821F82188619861A861B866D
:102440001C861D861E861F86188A198A1A8ADF91A5
:10245000CF911F910F9108952F923F924F925F92CB
:102460006F927F928F929F92AF92BF92CF92DF92A4
:10247000EF92FF920F931F93CF93DF93EC016B01C9
:102480005A018D81811103C08FEF9FEFDAC08C81DB
:1024900080FFFACF4B895C896D897E898A859B850F
:1024A000AC85BD852501612C712C8A019B01081B1F
:1024B000190B2A0B3B0B041515052605370518F4D7
:1024C0005A01A81AB90A25011E0126E0220E311C64
:1024D0004114510409F47BC04A855B856C857D8578
:1024E0004A0181E09822ED818A019B01F9E036954D
:1024F000279517950795FA95D1F78B8D9C8DE2302E
:1025000051F4FC01628D738D848D958D600F711F68
:10251000821F931F3EC0FC0174807A947022811444
:102520009104C9F4711017C0452B462B472B49F471
:102530008F89988DA98DBA8D8E839F83A887B9873F
:102540000AC04E815F816885798591010E94C71814
:10255000882309F499CFEB8DFC8D6E817F8188856E
:1025600099856250710981099109058404C0660F3B
:10257000771F881F991F0A94D2F70685178520892F
:102580003189600F711F821F931F670D711D811D9F
:10259000911D20E032E02819390932012415350552
:1025A00008F439012C8126FD04C06114F2E07F0695
:1025B000A1F50091070110910801209109013091C6
:1025C0000A01601771078207930719F426C0C50135
:1025D00038C0760183019401AB01BC018091B50242
:1025E0009091B6020E94DA0F882309F44DCFC60CF1
:1025F000D71C04C0E81BF90BCE0EDF1E8A859B8515
:10260000AC85BD85860D971DA11DB11D8A879B8751
:10261000AC87BD87461857085BCF40E00E9466181C
:10262000882309F431CFC40189549D4FD6019C0100
:10263000260D371DFC01E217F307E1F241914D939E
:10264000FACFDF91CF911F910F91FF90EF90DF9024
:10265000CF90BF90AF909F908F907F906F905F9042
:102660004F903F902F900895FF920F931F93CF9319
:10267000DF931F92CDB7DEB78C01FC0185818230DC
:1026800018F480E090E034C0F801428553856485F9
:102690007585A5E07695679557954795AA95D1F7E5
:1026A000F42FFF70FF2E41E050E0BE016F5F7F4FBF
:1026B000C8010E942C12019719F4298130E002C050
:1026C0002FEF3FEF2F3F3F4FE1F2F8014285538557
:1026D00064857585415E5F4F6F4F7F4F428753879B
:1026E00064877587F0E2FF9EC001112489549D4FD5
:1026F0000F90DF91CF911F910F91FF9008954F920E
:102700005F926F927F92AF92BF92CF92DF92EF92E1
:10271000FF920F931F93CF93DF93EC016A017B012C
:102720002D81222309F457C08B899C89AD89BE89EC
:1027300084179507A607B70708F44DC04EC08A85D1
:102740009B85AC85BD85EB8DFC8DE585F0E03996EC
:10275000AC01BD0141505109610971090E2E04C03F
:1027600076956795579547950A94D2F79701860114
:10277000015011092109310904C036952795179593
:102780000795EA95D2F70417150726073707B0F51E
:102790008F89988DA98DBA8D8E839F83A887B987DD
:1027A000280139015E0186E0A80EB11C41145104D4
:1027B0006104710461F14E815F81688579859501BD
:1027C0008B8D9C8D0E94C71891E0491A51086108B1
:1027D00071088111EBCF80E01FC02230C1F0C1141D
:1027E000D104E104F10409F0AACF1E821F821886E9
:1027F00019861A861B861C861D860DC0892B8A2B7E
:102800008B2B31F2041B150B260B370BC9CFCA8655
:10281000DB86EC86FD8681E0DF91CF911F910F91E1
:10282000FF90EF90DF90CF90BF90AF907F906F9030
:102830005F904F9008950F931F93CF93DF93EC0118
:102840008D818823C9F18C8187FF30C061E0CE0182
:102850000E948B118C01009779F18D81823048F4B0
:102860004B895C896D897E89F801448F558F668F0D
:10287000778F4F89588D698D7A8DF801538F428FEC
:10288000758B648BE091AE02F091AF02309759F0F6
:10289000B8016A5E7F4FC80148960995F801808D9E
:1028A000918D938B828B8C818F778C83DF91CF91ED
:1028B0001F910F910C942B1880E0DF91CF911F9105
:1028C0000F910895CF93DF93EC010E941B1488238E
:1028D00019F01D8281E001C080E0DF91CF91089561
:1028E0004F925F926F927F92AF92BF92CF92DF92A0
:1028F000EF92FF920F931F93CF93DF9300D000D0FE
:10290000CDB7DEB75C016A017B01FC0185818130B6
:10291000F1F4848181FF1BC0F50183899489A58925
:10292000B68984179507A607B70788F0892B8A2BE5
:102930008B2B09F479C0F501428453846484758437
:10294000B701A601C5010E947F13811102C080E07A
:102950006CC0F501838D948DC114D104E104F104A0
:1029600071F44789508D618D728D0E946C1B882394
:1029700071F3F501178A108E118E128E3AC0F5018F
:1029800046815781608571859E012F5F3F4F0E9470
:10299000C7188823E1F249815A816B817C81F50156
:1029A000838D948DFC012789203129F408EF1FEFD6
:1029B00020E030E004C008EF1FEF2FEF3FE04017AA
:1029C000510762077307A8F40E946C1B882309F45F
:1029D000BECFF50146815781608571850FEF1FEFEE
:1029E0002FEF3FE0838D948D0E94B619882309F460
:1029F000AECFF501C38AD48AE58AF68A84818068DD
:102A00008483C5010E941B14882309F4A0CFB70159
:102A1000A6014C145D046E047F0410F4B301A201FE
:102A2000C5010E947F1301C081E00F900F900F90AD
:102A30000F90DF91CF911F910F91FF90EF90DF905A
:102A4000CF90BF90AF907F906F905F904F90089520
:102A5000FF920F931F93CF93DF93EC01F42E80E24C
:102A6000689FF0011124E954FD4F8385817129F09D
:102A7000842F827411F080E053C06A8B809107012B
:102A800090910801A0910901B0910A018E879F875A
:102A9000A88BB98B4489558960E070E0BA0155274D
:102AA0004427028D138D20E030E0402B512B622B08
:102AB000732B4F8B588F698F7A8F8385887151F470
:102AC000048D158D268D378D0B8B1C8B2D8B3E8B9E
:102AD00081E00CC0803179F69E012D5E3F4F8B8DD9
:102AE0009C8D0E944B19882331F284E08D838F2DB9
:102AF0008F708C831E821F82188619861A861B8609
:102B00001C861D86F6FE0BC040E050E0BA01CE01E7
:102B1000DF91CF911F910F91FF900C94701481E081
:102B2000DF91CF911F910F91FF900895AF92BF92C7
:102B3000CF92DF92EF92FF920F931F93CF93DF9389
:102B4000CDB7DEB72B970FB6F894DEBF0FBECDBF63
:102B50007C016B01CA01B22EF70125812111B9C098
:102B6000BE016F5F7F4F0E94A411882309F4B1C09A
:102B7000F601838D948DF701948F838FF601168271
:102B80001782108611861286138614861586A12C4C
:102B9000F601028513852485358583899489A58965
:102BA000B689081719072A073B07E8F545E0369567
:102BB0002795179507954A95D1F70F70C6010E9482
:102BC0003413009709F485C0FC012081222311F001
:102BD000253EB9F4A1100EC0F701028B4091070108
:102BE000509108016091090170910A014687578749
:102BF000608B718BFC018081AA24A3948111C8CFC2
:102C000012C04BE050E0BC01CE0101960E94B322FD
:102C1000892B09F0BDCF8B2D8073803309F459C007
:102C20004B2D602F52C08B2D8271823109F051C023
:102C3000AA2041F061E0C7010E948B118C0100972E
:102C400079F447C0F6018581823009F442C0C6019B
:102C50000E942A118823E9F1F701128A07EB12E09A
:102C600080E2F80111928A95E9F78BE0FE01319636
:102C7000D80101900D928A95E1F7E091AE02F091B2
:102C8000AF02309739F0B801625F7F4FC8014096BC
:102C9000099509C081E298E2F801918B808B80E070
:102CA00098E097878687F80180899189938B828B3A
:102CB000918F808F86859785978B868B0E942B18A6
:102CC000882339F04B2DF7016289C7010E9428152E
:102CD00001C080E02B960FB6F894DEBF0FBECDBFCB
:102CE000DF91CF911F910F91FF90EF90DF90CF90E8
:102CF000BF90AF9008952F923F924F925F926F9244
:102D00007F928F929F92AF92BF92CF92DF92EF927B
:102D1000FF920F931F93CF93DF9300D000D01F92A9
:102D2000CDB7DEB78C017B013A01DC0115968C91A1
:102D300015978130C9F414968C9181FF15C082FFDC
:102D40001BC0F801438954896589768982859385FA
:102D5000A485B58584179507A607B70769F0C8014C
:102D60000E947F13811108C081E090E0F8019383F5
:102D7000828380E090E046C1630180C0D8015B9609
:102D80008D919C915C97FC01F481F150B501A401F7
:102D900029E076956795579547952A95D1F7F423BD
:102DA000FD8321E09222FF2309F474C080E092E0C9
:102DB0008819990956018C159D0508F45C01D80104
:102DC0005B96ED91FC915C9716962D903D904D9001
:102DD0005C901997B2E02B1A31084108510805841C
:102DE00004C0220C331C441C551C0A94D2F786855F
:102DF0009785A089B189280E391E4A1E5B1EED8178
:102E00002E0E311C411C511CA114F2E0BF0609F02A
:102E100088C08091070190910801A0910901B091AB
:102E20000A0182159305A405B50559F48FEF9FEFAC
:102E3000DC018093070190930801A0930901B093EE
:102E40000A019701B201A1018091B5029091B602E9
:102E50000E94AC10882309F487CF9EEFF91ACA1894
:102E6000DB08F80182859385A485B5858A0D9B1DB5
:102E7000A11DB11D82879387A487B587D8011A96B3
:102E80008D909D90AD90BC901D97C114D10409F018
:102E900075CF8AC08114910409F088CF16964D91A0
:102EA0005D916D917C9119974115510561057105F1
:102EB00059F457968D919D910D90BC91A02D00973E
:102EC000A105B10541F521C09E012F5F3F4F0E9432
:102ED000C718882309F44ECF89819A81AB81BC81C0
:102EE000F801238D348DF9012789203129F448EF29
:102EF0005FEF60E070E004C048EF5FEF6FEF7FE0EE
:102F000084179507A607B70730F0C8010E94001183
:102F100081114CCF29CFF80186839783A087B18791
:102F200045CF8114910429F5D8011A964D915D91F0
:102F30006D917C911D9753968D919D910D90BC91B3
:102F4000A02D481759076A077B0798F00E942B1895
:102F5000882309F409CF209207013092080140929A
:102F6000090150920A018091B40281608093B402F9
:102F700008C041E0C201B1010E946618882309F42B
:102F8000F3CEC40189549D4FD7019C012A0D3B1DEE
:102F9000FC01E217F30719F04D914193FACFE81BBA
:102FA000F90BEE0EFF1E5BCF53968D919D910D9008
:102FB000BC91A02DF801248188159905AA05BB05AF
:102FC00038F4838A948AA58AB68A206824830CC040
:102FD0008091AE029091AF02892B31F0611471049F
:102FE00019F02068F8012483D80114968C9183FD90
:102FF00002C0C30107C0C8010E941B14882309F442
:10300000B3CEF7CF0F900F900F900F900F90DF91EE
:10301000CF911F910F91FF90EF90DF90CF90BF90D5
:10302000AF909F908F907F906F905F904F903F9068
:103030002F900895CF93DF931F92CDB7DEB76983AA
:1030400041E050E0BE016F5F7F4F0E947B160F9002
:10305000DF91CF9108958091B402882399F1409136
:103060000701509108016091090170910A0127EB55
:1030700032E08091B5029091B6020E94AC10882394
:1030800019F14091B0025091B1026091B202709179
:10309000B302411551056105710591F027EB32E04E
:1030A0008091B5029091B6020E94AC10882361F025
:1030B0001092B0021092B1021092B2021092B302BA
:1030C0001092B40281E0089580E00895CF92DF92DB
:1030D000EF92FF92CF936B017C01C42F8091070187
:1030E00090910801A0910901B0910A018C159D05EC
:1030F000AE05BF05D1F00E942B18811102C080E0FF
:103100001AC027EB32E0B701A6018091B502909179
:10311000B6020E945910882391F3C0920701D09201
:103120000801E0920901F0920A018091B4028C2B0F
:103130008093B40281E0CF91FF90EF90DF90CF9029
:103140000895CF92DF92EF92FF926B017C010E9473
:103150002B188823B1F0E7EBF2E0119284E0E73B13
:10316000F807D9F7C0920701D0920801E09209014F
:10317000F0920A018091B40281608093B40281E0F0
:1031800001C080E0FF90EF90DF90CF9008958F9284
:103190009F92AF92BF92CF92DF92EF92FF920F93E6
:1031A0001F93CF93DF938C016A017B01E901FC013E
:1031B00081859285A385B4850196A11DB11D8417D3
:1031C0009507A607B70710F480E058C0F8014389B7
:1031D0005489658976898789803129F4BB27AF2D89
:1031E0009E2D8D2D09C0D701C60127E0B695A79564
:1031F000979587952A95D1F74C015D01840E951E10
:10320000A61EB71EC501B401809007019090080169
:10321000A0900901B0900A01681579058A059B05FF
:1032200089F4F8018789803199F4DD24EE24FF24A4
:10323000F601EE0FFF1FE954FD4F80819181A0E060
:10324000B0E017C040E00E9466188111EACFBCCF01
:10325000E894C7F8DD24EE24FF24F601EE0FFF1FEB
:10326000EE0FFF1FE954FD4F80819181A281B38150
:10327000BF7088839983AA83BB8381E0DF91CF915C
:103280001F910F91FF90EF90DF90CF90BF90AF9084
:103290009F908F9008954F925F926F927F92AF921E
:1032A000BF92CF92DF92EF92FF920F931F93CF9333
:1032B000DF9300D000D0CDB7DEB78C0149835A83AD
:1032C0006B837C835901C12CD12C7601412C42E0C7
:1032D000542E612C712C49815A816B817C819E0115
:1032E0002F5F3F4FC8010E94C718882359F1D301AF
:1032F000C201F801058404C0880F991FAA1FBB1FD3
:103300000A94D2F7C80ED91EEA1EFB1E49815A81C3
:103310006B817C818789803129F488EF9FEFA0E061
:10332000B0E004C088EF9FEFAFEFBFE04817590748
:103330006A077B0780F2F501C082D182E282F382C4
:1033400081E001C080E00F900F900F900F90DF910F
:10335000CF911F910F91FF90EF90DF90CF90BF9092
:10336000AF907F906F905F904F9008954F925F92D3
:103370006F927F928F929F92AF92BF92CF92DF9285
:10338000EF92FF920F931F93CF93DF93EC016A01AB
:103390007B0128013901423051056105710508F4AE
:1033A00074C049855A856B857C854F5F5F4F6F4F31
:1033B0007F4F4C155D056E057F0508F466C08B8850
:1033C0009C88AD88BE888F89803129F477276F2D3E
:1033D0005E2D4D2D09C0B701A601E7E076956795F2
:1033E00057954795EA95D1F7840E951EA61EB71EF0
:1033F00040910701509108016091090170910A0103
:1034000084169506A606B70671F48F89803199F463
:10341000DD24EE24FF24F601EE0FFF1FE954FD4FDB
:103420005182408218C040E0C501B4010E94661874
:103430008111EBCF2AC0E894C7F8DD24EE24FF24E5
:10344000F601EE0FFF1FEE0FFF1FE954FD4F408204
:103450005182628273828091B40281608093B4024F
:103460008A89823080F08D819E81AF81B885880DF8
:10347000991DAA1DBB1D8093B0029093B102A09329
:10348000B202B093B30281E001C080E0DF91CF913E
:103490001F910F91FF90EF90DF90CF90BF90AF9072
:1034A0009F908F907F906F905F904F9008952F9294
:1034B0003F924F925F926F927F929F92AF92BF9294
:1034C000CF92DF92EF92FF920F931F93CF93DF93F0
:1034D000CDB7DEB760970FB6F894DEBF0FBECDBF95
:1034E0005C014D875E876F87788B1901D9014D90FC
:1034F0005D906D907C90411451046104710431F031
:10350000BFEF4B1A5B0A6B0A7B0A10C0FC014080BC
:10351000518062807380992493940D851E852F8538
:103520003889013011052105310509F0912CD501AB
:1035300019962D913D914D915C911C972F5F3F4FB6
:103540004F4F5F4F29873A874B875C877301620132
:103550001D821E821F821886F50181859285A385B2
:10356000B4850D811E812F813885081719072A0718
:103570003B0708F056C029853A854B855C852C159C
:103580003D054E055F0550F4A2E0CA2ED12CE12C7A
:10359000F12CB2E04B2E512C612C712C9E012F5F2F
:1035A0003F4FB701A601C5010E94C7188823C9F182
:1035B00049815A816B817C81D701C6010196A11D89
:1035C000B11D452B462B472B19F02C013D010FC097
:1035D000AC01BD0144195509660977090D851E85A1
:1035E0002F853889401751076207730779F02D81BD
:1035F0003E814F8158852F5F3F4F4F4F5F4F2D8347
:103600003E834F8358876C017D01A6CF0FEF1FEFDC
:103610002FEF3FE0B701A601C5010E94B619811145
:1036200018C080E041C0D701C6010197A109B109C6
:103630008D839E83AF83B88797018601AC01BD015E
:10364000C5010E94B619882361F3CD80DE80EF802A
:10365000F8844C145D046E047F0428F3D1014D916D
:103660005D916D917C91411551056105710599F44C
:10367000F10140825182628273829920A1F0FFEFB2
:103680004F1A5F0A6F0A7F0AD5014D925D926D92C3
:103690007C92139708C093018201C5010E94B6195C
:1036A0008111E6CFBECF81E060960FB6F894DEBF01
:1036B0000FBECDBFDF91CF911F910F91FF90EF9083
:1036C000DF90CF90BF90AF909F907F906F905F9072
:1036D0004F903F902F900895AF92BF92CF92DF927C
:1036E000EF92FF920F931F93CF93DF9300D000D000
:1036F000CDB7DEB75C016A017B0182E090E0A0E01B
:10370000B0E0F50180839183A283B3839E012F5F94
:103710003F4FB701A601C5010E94C718882311F1C8
:1037200000E010E09801B701A601C5010E94B6199A
:103730008823C1F0C980DA80EB80FC80F50187899D
:10374000803129F488EF9FEFA0E0B0E004C088EF5B
:103750009FEFAFEFBFE0C816D906EA06FB06B0F24E
:1037600081E001C080E00F900F900F900F90DF91EB
:10377000CF911F910F91FF90EF90DF90CF90BF906E
:10378000AF9008958F929F92AF92BF92CF92DF92A7
:10379000EF92FF920F931F93CF93DF93EC01142FBF
:1037A0007093B6026093B502442341F1453010F0A6
:1037B00080E0EFC040E060E070E0CB010E9466185E
:1037C0008823B1F320E1129FF0011124EB59FB4F44
:1037D00080818F7769F784859585A685B78584363E
:1037E0009105A105B10520F3C084D184E284F3845E
:1037F000C114D104E104F10421F4DACFC12CD12C9D
:10380000760140E0C701B6010E946618882381F264
:103810008091C2029091C3028115924049F6309185
:10382000C702332329F28091C5029091C602892BE9
:1038300009F4BECF2091C402222309F4B9CF3A8BF8
:103840002C831D8630E041E050E06D85062FCA01D3
:10385000062E02C0880F991F0A94E2F7281739072D
:1038600031F081E0860F8D87683078F3A1CF209109
:10387000CD023091CE022115310519F040E050E023
:1038800008C02091DB023091DC024091DD025091B2
:10389000DE022D833E834F8358878091C50290912D
:1038A000C60246015701880E991EA11CB11C8B8AC5
:1038B0009C8AAD8ABE8AE091C802F091C902F98F54
:1038C000E88FA091C702B0E00E946C21680D791DBD
:1038D0008A1D9B1D6A8F7B8F8C8F9D8F15E0EE0F4D
:1038E000FF1F1A95E1F7E150FE4FEF2FFF27E695F6
:1038F000DC01CB018E0F9F1FA11DB11D8E879F87FD
:10390000A88BB98B8090CA029090CB02811491044D
:1039100019F0A12CB12C08C08090D7029090D80249
:10392000A090D902B090DA02A7019601281B390BAA
:103930004A0B5B0BDA01C901880D991DAA1DBB1D3D
:1039400004C0B695A795979587950A95D2F789876C
:103950009A87AB87BC87853F3FE09307A105B105F8
:1039600010F48CE014C0853F9F4FA105B10510F401
:1039700080E10DC08091E3029091E402A091E50204
:10398000B091E6028A8F9B8FAC8FBD8F80E28F8BC8
:1039900081E0DF91CF911F910F91FF90EF90DF9029
:1039A000CF90BF90AF909F908F90089508958230F0
:1039B000E8F4E82FF0E0EE0FFF1FE55FFE4F7183A4
:1039C0006083813041F0809169008C7F842B8093EB
:1039D0006900E89A089580916900440F551F440FCB
:1039E000551F837F842B80936900E99A08951F9265
:1039F0000F920FB60F9211242F933F934F935F9323
:103A00006F937F938F939F93AF93BF93EF93FF93A6
:103A1000E0910B01F0910C010995FF91EF91BF919D
:103A2000AF919F918F917F916F915F914F913F9156
:103A30002F910F900FBE0F901F9018951F920F920D
:103A40000FB60F9211242F933F934F935F936F9371
:103A50007F938F939F93AF93BF93EF93FF93E091E7
:103A60000D01F0910E010995FF91EF91BF91AF917A
:103A70009F918F917F916F915F914F913F912F9186
:103A80000F900FBE0F901F9018951F920F920FB6B8
:103A90000F9211242F933F938F939F93AF93BF93D4
:103AA0008091B8049091B904A091BA04B091BB047C
:103AB0003091B70423E0230F2D3720F40196A11D88
:103AC000B11D05C026E8230F0296A11DB11D20934C
:103AD000B7048093B8049093B904A093BA04B09348
:103AE000BB048091BC049091BD04A091BE04B09130
:103AF000BF040196A11DB11D8093BC049093BD0429
:103B0000A093BE04B093BF04BF91AF919F918F91DA
:103B10003F912F910F900FBE0F901F9018952FB7C8
:103B2000F8946091B8047091B9048091BA049091AE
:103B3000BB042FBF08953FB7F8948091BC049091C7
:103B4000BD04A091BE04B091BF0426B5A89B05C0DA
:103B50002F3F19F00196A11DB11D3FBF6627782F99
:103B6000892F9A2F620F711D811D911D42E0660FF2
:103B7000771F881F991F4A95D1F70895CF92DF923A
:103B8000EF92FF92CF93DF936B017C010E949B1D0C
:103B9000EB01C114D104E104F10489F00E943D213C
:103BA0000E949B1D6C1B7D0B683E734090F381E06F
:103BB000C81AD108E108F108C851DC4FEACFDF91FB
:103BC000CF91FF90EF90DF90CF90089582309105D4
:103BD00038F0880F991F880F991F05970197F1F703
:103BE0000895789484B5826084BD84B5816084BD75
:103BF00085B5826085BD85B5816085BDEEE6F0E066
:103C0000808181608083E1E8F0E0108280818260C1
:103C10008083808181608083E0E8F0E08081816042
:103C20008083E1EBF0E0808184608083E0EBF0E072
:103C3000808181608083EAE7F0E080818460808316
:103C400080818260808380818160808380818068C0
:103C500080831092C1000895833081F028F4813070
:103C600099F08230A1F008958730A9F08830B9F03A
:103C70008430D1F4809180008F7D03C080918000DA
:103C80008F7780938000089584B58F7702C084B5C4
:103C90008F7D84BD08958091B0008F7703C080919F
:103CA000B0008F7D8093B0000895CF93DF9390E0B4
:103CB000FC01E457FF4F2491FC01E056FF4F849133
:103CC000882349F190E0880F991FFC01E853FF4FCA
:103CD000A591B49182549F4FFC01C591D4919FB797
:103CE000611108C0F8948C91209582238C9388816F
:103CF00082230AC0623051F4F8948C91322F3095AF
:103D000083238C938881822B888304C0F8948C91C0
:103D1000822B8C939FBFDF91CF9108950F931F93B8
:103D2000CF93DF931F92CDB7DEB7282F30E0F90194
:103D3000E858FF4F8491F901E457FF4F1491F901BE
:103D4000E056FF4F04910023C9F0882321F06983D6
:103D50000E942C1E6981E02FF0E0EE0FFF1FE2545D
:103D6000FF4FA591B4919FB7F8948C91611103C056
:103D70001095812301C0812B8C939FBF0F90DF9101
:103D8000CF911F910F910895CF93DF93282F30E0AB
:103D9000F901E858FF4F8491F901E457FF4FD4919E
:103DA000F901E056FF4FC491CC2391F081110E949C
:103DB0002C1EEC2FF0E0EE0FFF1FEC54FF4FA591EF
:103DC000B4912C912D2381E090E021F480E002C099
:103DD00080E090E0DF91CF910895FC01818D228DEC
:103DE00090E0805C9F4F821B91098F739927089503
:103DF000FC01918D828D981731F0828DE80FF11DB5
:103E0000858D90E008958FEF9FEF0895FC01918DCF
:103E1000828D981761F0828DDF01A80FB11D5D962C
:103E20008C91928D9F5F9F73928F90E008958FEF9A
:103E30009FEF08958AE890E2892B49F080E090E0B6
:103E4000892B29F00E948A2081110C94000008958A
:103E5000FC01848DDF01A80FB11DA35ABF4F2C9127
:103E6000848D90E001968F739927848FA689B789F6
:103E70002C93A089B1898C9180648C93938D848DCF
:103E8000981306C00288F389E02D80818F7D80839E
:103E90000895CF93DF93EC01888D8823C9F0EA89D8
:103EA000FB89808185FD05C0A889B9898C9186FD33
:103EB0000FC00FB607FCF5CF808185FFF2CFA88930
:103EC000B9898C9185FFEDCFCE010E94281FE7CFE5
:103ED000DF91CF910895CF92DF92FF920F931F93BE
:103EE000CF93DF931F92CDB7DEB76C0181E0D6018F
:103EF00058968C9358975B969C915B975C968C91A7
:103F00005C97981307C05096ED91FC915197808172
:103F100085FD2EC0F601038D10E00F5F1F4F0F735C
:103F20001127F02EF601848DF81211C00FB607FC90
:103F3000F9CFD6015096ED91FC915197808185FF84
:103F4000F1CFC60169830E94281F6981EBCF838D61
:103F5000E80FF11DE35AFF4F6083D6015B960C9387
:103F60005B975296ED91FC915397808180620CC0D3
:103F7000D6015696ED91FC91579760835096ED913E
:103F8000FC91519780818064808381E090E00F9064
:103F9000DF91CF911F910F91FF90DF90CF90089507
:103FA000BF92CF92DF92EF92FF92CF93DF93EC011B
:103FB0006A017B01B22EE889F98982E0808341158C
:103FC00081EE580761057105A1F060E079E08DE3AD
:103FD00090E0A70196010E944A2121503109410930
:103FE00051095695479537952795211580E1380752
:103FF00098F0E889F989108260E874E88EE190E031
:10400000A70196010E944A21215031094109510915
:104010005695479537952795EC85FD853083EE8538
:10402000FF852083188EEC89FD89B082EA89FB899F
:10403000808180618083EA89FB89808188608083B8
:10404000EA89FB89808180688083EA89FB89808195
:104050008F7D8083DF91CF91FF90EF90DF90CF90A5
:10406000BF9008951F920F920FB60F9211242F93B5
:104070008F939F93EF93FF93E091D004F091D1043D
:104080008081E091D604F091D70482FD12C0908126
:104090008091D9048F5F8F732091DA04821751F0D9
:1040A000E091D904F0E0E054FB4F958F8093D90460
:1040B00001C08081FF91EF919F918F912F910F907F
:1040C0000FBE0F901F9018951F920F920FB60F9270
:1040D00011242F933F934F935F936F937F938F930D
:1040E0009F93AF93BF93EF93FF9380EC94E00E9474
:1040F000281FFF91EF91BF91AF919F918F917F9179
:104100006F915F914F913F912F910F900FBE0F9044
:104110001F90189580EC94E00E94ED1E21E0892B01
:1041200009F420E0822F08951092C3041092C20473
:1041300088EE93E0A0E0B0E08093C4049093C504BF
:10414000A093C604B093C7048CED91E09093C10492
:104150008093C00485EC90E09093CD048093CC04D0
:1041600084EC90E09093CF048093CE0480EC90E0B8
:104170009093D1048093D00481EC90E09093D30489
:104180008093D20482EC90E09093D5048093D40481
:1041900086EC90E09093D7048093D6041092D904D3
:1041A0001092DA041092DB041092DC040895CF928E
:1041B000DF92EF92FF920F931F93CF93DF937C01D7
:1041C0006A01EB0100E010E00C151D0571F069912A
:1041D000D701ED91FC910190F081E02DC701099587
:1041E000892B19F00F5F1F4FEFCFC801DF91CF91DF
:1041F0001F910F91FF90EF90DF90CF900895611580
:10420000710581F0DB010D900020E9F7AD0141500F
:104210005109461B570BDC01ED91FC910280F381A3
:10422000E02D099480E090E008950C94FF2068EE62
:1042300071E00C94FF200F931F93CF93DF93EC0159
:104240000E94FF208C01CE010E941721800F911F38
:10425000DF91CF911F910F91089508950E94F11D54
:104260000E942D210E94C301CAE1DFE10E948C025D
:104270002097E1F30E941A1FF9CF0895991B79E066
:1042800004C0991F961708F0961B881F7A95C9F7E6
:1042900080950895A1E21A2EAA1BBB1BFD010DC03B
:1042A000AA1FBB1FEE1FFF1FA217B307E407F507E6
:1042B00020F0A21BB30BE40BF50B661F771F881FC2
:1042C000991F1A9469F760957095809590959B0158
:1042D000AC01BD01CF0108950E947D21A59F900DE5
:1042E000B49F900DA49F800D911D11240895EE0F91
:1042F000FF1F0590F491E02D0994A29FB001B39F98
:10430000C001A39F700D811D1124911DB29F700DDE
:10431000811D1124911D0895CF93DF938230910563
:1043200010F482E090E0E0915F05F091600520E0FC
:1043300030E0A0E0B0E0309739F14081518148177A
:104340005907B8F04817590771F482819381109783
:1043500029F013969C938E9312972CC0909360052E
:1043600080935F0527C02115310531F042175307AF
:1043700018F0A901DB0101C0EF019A01BD01DF01C5
:104380000280F381E02DD7CF21153105F9F0281BEC
:10439000390B2430310580F48A819B8161157105C8
:1043A00021F0FB019383828304C090936005809386
:1043B0005F05FE01329644C0FE01E20FF31F8193B8
:1043C000919322503109398328833AC020915D05A9
:1043D00030915E05232B41F42091020130910301BD
:1043E00030935E0520935D0520910001309101011D
:1043F0002115310541F42DB73EB74091040150918C
:104400000501241B350BE0915D05F0915E05E21777
:10441000F307A0F42E1B3F0B2817390778F0AC01E7
:104420004E5F5F4F2417350748F04E0F5F1F5093C4
:104430005E0540935D058193919302C0E0E0F0E05A
:10444000CF01DF91CF910895CF93DF93009709F4C7
:1044500087C0FC01329713821282C0915F05D09110
:104460006005209781F420813181280F391F8091C8
:104470005D0590915E058217930779F5F0935E05CF
:10448000E0935D056DC0DE0120E030E0AE17BF07B0
:1044900050F412964D915C9113979D014115510571
:1044A00009F1DA01F3CFB383A28340815181840FF4
:1044B000951F8A179B0771F48D919C911197840F1A
:1044C000951F02969183808312968D919C911397EC
:1044D000938382832115310529F4F0936005E093DD
:1044E0005F053EC0D9011396FC93EE9312974D9150
:1044F0005D91A40FB51FEA17FB0779F480819181C4
:10450000840F951F0296D90111969C938E938281F8
:10451000938113969C938E931297E0E0F0E08A814A
:104520009B81009719F0FE01EC01F9CFCE010296B4
:1045300028813981820F931F20915D0530915E059E
:104540002817390769F4309729F410926005109202
:104550005F0502C013821282D0935E05C0935D0591
:10456000DF91CF910895FB01DC0104C08D91019092
:10457000801921F441505040C8F7881B990B0895C9
:10458000FB01DC010D900020E9F7119701900D92DD
:104590000020E1F70895FC018191861721F088231E
:1045A000D9F7992708953197CF010895FB01DC01D0
:1045B0004150504048F001900D920020C9F701C0D1
:0E45C0001D9241505040E0F70895F894FFCF4F
:1045CE0000006105800003FFFFFFFFD61CD61C53C1
:1045DE0074617274696E672E2E2E0056533130350B
:1045EE0033206F6B0053442063617264206F6B0045
:1045FE0056533130353320696E746572727570742E
:10460E00206F6B002F616C61726D2F002F616C61DA
:10461E00726D2F64656661756C742E6D7033002F2C
:10462E0073636865642F002F73636865642F646518
:10463E006661756C742E6D7033002F6576656E74C1
:10464E002F002F6576656E742F64656661756C74C8
:10465E002E6D7033002F616D622F002F616D622FF2
:10466E0064656661756C742E6D7033002F74616CA9
:10467E006B2F005F002F636F6E742F00020003011B
:10468E0000000000DF09F509DA0A2F0A390A100ABC
:10469E00000000001A18D720000000006B1FD72062
:1046AE00ED1E061FF81E491F0D0A006E616E006991
:0846BE006E66006F76660000D5
:00000001FF
